:020000040000FA
:1000000008500020552100005D5C000085210000A3
:100010008521000085210000852100008521000048
:10002000000000000000000000000000AD1F000004
:10003000852100000000000000000000095C0000B5
:100040002D2100002D2100002D2100002D21000078
:100050002D2100002D2100002D2100002D21000068
:100060002D2100002D2100002D2100002D21000058
:100070002D2100002D2100002D2100002D21000048
:100080002D2100002D2100002D2100002D21000038
:100090002D2100002D2100002D2100002D21000028
:1000A0002D2100002D2100002D2100002D21000018
:1000B0002D2100002D2100002D2100002D21000008
:1000C0002D2100002D2100002D2100002D210000F8
:1000D0002D2100002D2100002D2100002D210000E8
:1000E0002D2100002D2100002D2100002D210000D8
:1000F0002D2100002D2100002D2100002D210000C8
:100100002D2100002D2100002D2100002D210000B7
:100110002D2100002D2100002D2100002D210000A7
:100120002D2100002D2100002D2100002D21000097
:100130002D2100002D2100002D2100002D21000087
:100140002D2100002D2100002D2100002D21000077
:100150002D21000053B94AB9002908BF00281CBF4F
:100160004FF0FF314FF0FF3000F00CB8ADF1080C4C
:100170006DE904CE00F008F8DDF804E0DDE90223C3
:1001800004B07047704700BF2DE9F04F07468C461A
:100190000846099E15463C461946002B40F0C5808E
:1001A0008242B2FA82F746D94FB1C7F1200E00FA67
:1001B00007F3BD4024FA0EFEBC404EEA030C4FEAA2
:1001C00015481FFA85FE220CBCFBF8F908FB19C381
:1001D00009FB0EFA42EA03439A4528D9EB1809F1C4
:1001E000FF3004D29A4502D9A9F102002B44A3EBB7
:1001F0000A03A4B2B3FBF8F208FB123302FB0EFEB3
:1002000044EA0344A64514D92C1902F1FF3303D262
:10021000A64501D9931E2C44A4EB0E0443EA0040EA
:100220001EB1FC40002334607360BDE8F08F484687
:10023000DDE71346F0E702B9FFDE87BB831A012131
:100240004FEA154EAAB2200CB3FBFEFC0EFB1C338A
:100250000CFB02F840EA0343984562D9EB180CF115
:10026000FF3004D2984502D9ACF102002B44A3EB35
:100270000803A4B2B3FBFEFC0EFB1C330CFB02F222
:1002800044EA0344A2424ED92C190CF1FF3304D2A4
:10029000A24202D9ACF102032C44A41ABEE7C7F172
:1002A000200CBD4000FA07F320FA0CF84FEA154E77
:1002B00024FA0CFCBC404CEA0302ABB2B8FBFEFCD7
:1002C000110C0EFB1C800CFB03F941EA0040814538
:1002D00023D928180CF1FF3104D2814502D9ACF1A1
:1002E00002012844A0EB090092B2B0FBFEFC0EFB19
:1002F0001C000CFB03F842EA004398450FD9EB18A9
:100300000CF1FF3204D2984502D9ACF102022B4421
:10031000A3EB080342EA014192E76146E2E7624645
:10032000F6E76046A3E76346B7E7834205D90EB117
:10033000C6E900700021084677E7B3FA83F181B976
:10034000834201D3BA420AD8BC1A60EB03030120EE
:100350009C46002E67D0C6E9004C002165E70846A0
:10036000F7E7C1F1200C8B4002FA01F522FA0CF4F8
:1003700020FA0CFB27FA0CF28F401C4300FA01F321
:100380004FEA144913431FFA84FE1A0CBBFBF9F819
:1003900009FB18BB08FB0EFA42EA0B4292453ED914
:1003A000A21808F1FF3004D2924502D9A8F1020048
:1003B0002244A2EB0A029BB2B2FBF9F809FB182215
:1003C00008FB0EFE43EA024296452AD9A21808F11C
:1003D000FF3304D2964502D9A8F10203224443EA2E
:1003E0000040A2EB0E02A0FB05939A42CE4698462F
:1003F00002D306D14F4504D20138B9EB050E63EBA9
:10040000040886B1B7EB0E0362EB080707FA0CFC91
:10041000CB40CF404CEA0303C6E900379DE7404696
:10042000C7E74346DBE73146FFE6000000B587B08B
:10043000274B019300238DF8083007E003F5C071C6
:10044000234A244842F821000133DBB2072BF5D9B7
:10045000214A01AB92E8030083E80300002307E090
:1004600003F5C0711D4A1B4842F821000133DBB27D
:10047000072BF5D949211A4805F0D4F900F05EF8A8
:10048000184800F03DF858B103A800F0BDFC164B29
:100490001B6883420AD04521144805F0C3F9FEE7E2
:1004A000104A4521124805F0BDF9FEE7059A492199
:1004B000104805F0B7F949210F4805F0B3F903A832
:1004C00004F0DDFB45210D4805F0ACF9FEE700BF67
:1004D000008001503546526E0085000000900150AA
:1004E0002885000044850000DC1800207885000085
:1004F000588500009C850000CC850000F485000034
:1005000008B5054B1B6813B1034B186808BD04F010
:100510008BFA014B1860F7E7D800002010B90020D3
:100520000860704708B5024600234521024805F0DF
:1005300079F96FF0150008BD1886000008B54FF472
:10054000C051024803F0DAFB08BD00BFDC00002008
:1005500070B5A4B020292AD806460D46002400E034
:100560000134144B1B68A3421CDD09A807F0F8FBFB
:10057000002109A803F0F0FC0F4B03EBC402526802
:10058000126853F8341009A807F0F0FB01A909A874
:1005900007F02FFC2A46314601A805F0DFFB0028B2
:1005A000DED101E04FF0FF34204624B070BD4FF0A3
:1005B000FF34F9E740860000448600002DE9F04151
:1005C000D6B015461F465A4CD4F800805F9C049460
:1005D0005E9C039406AC02945D9C01945C9C009428
:1005E00004F075FB0446002840F08580609B23B131
:1005F000202206A9184605F0C3FB002300934FF6FE
:10060000FF733A4629464EA804F0A0FB0446002892
:1006100071D145464FF0FF361CE04FF0FF3619E030
:100620004FF0FF3616E0BDF85231202B77D10EAADD
:100630005599384605F067F90446002861D1202213
:100640000EA906A804F0C7FC05463A4B1B68834276
:1006500059D1012454AB0DF5A97255A94EA804F047
:10066000DAFB002845DB37DCBDF850111029DAD061
:10067000012920D02029EDD1002ECEDB2E4B1B6886
:10068000B342CDDDBDF85231B3F5807F4DD10EAA16
:100690005599384605F037F9002839D1F6B2009659
:1006A000BDF852310EAA202106A800F0B9F8804604
:1006B0004FF0FF36CEE7BDF85231202B32D80EAACC
:1006C0005599384605F01FF9F8B99DF852110EA852
:1006D000FFF73EFF0646BDE7002C0CBF01240024B7
:1006E00019D0144B1B68434517D0114BD3F8008029
:1006F00001E0A846044604B94446204656B0BDE889
:10070000F081A846F7E78046F5E7A8460446F2E7F9
:10071000A8460446EFE7A846EDE79846EBE74FF01A
:10072000FF34EAE74FF0FF34E7E74FF0FF34E4E748
:1007300000000020DC1800204086000030B5ADF538
:100740001D7D0D4619464368B3F5807F51D1202A9F
:1007500052D141AA03F0BEFB044600284FD19DF8B8
:100760000332BC2B4ED10DF2E31109A804F001FCB9
:10077000234608E041AAD25C09A810F803C082EA27
:100780000C02C2540133DE2BF4DD9DF8243003F05B
:100790007F038DF82430BD2C05DC09AB1B5D002BDD
:1007A00033D10134F7E79DF8E230012B32D181A833
:1007B00007F0D6FA002181A803F0CEFB08221749E2
:1007C00081A807F0D3FA2022294681A807F0CEFAA3
:1007D00020220DF1E30181A807F0C8FA01A981A840
:1007E00007F007FB20220DF2E31101A804F0F3FB50
:1007F0000DE04FF0FF300AE04FF0FF3007E04FF020
:10080000FF3004E04FF0FF3001E04FF0FF300DF516
:100810001D7D30BD4FF0FF30F9E700BF4C86000072
:100820002DE9F047ACB006460F4690461D469DF8B0
:10083000D0A0154BD3F800900022114601A807F074
:1008400049FA124C54F83A30009304EBCA04626837
:1008500012681A44694601A804F039FB10B9029BDA
:10086000AB4209D001A807F043FA01A807F040FA0B
:1008700048462CB0BDE8F08743463A46314601A8C9
:10088000FFF75CFF8146F0E700000020448600008F
:1008900070B586B00D460123ADF804300024012C5C
:1008A00021D8294606AB234413F8140C01F036F97D
:1008B0000646D0B928688168102302AA103905F0CD
:1008C00022F8064658B91022094902A805F046FA4E
:1008D000064650B1286805F015F80134DFE72868AE
:1008E00005F010F801E04FF0FF36304606B070BD5D
:1008F0007C93000002680B4B9A420ED1C2680389B8
:10090000D843824203D802EB030C012000E0002010
:1009100010B18B68634502D97047002070470020F2
:10092000FAE700BF3DB8F39600B587B01346002044
:100930000490039002904FF480720192044A009256
:100940000A460146FFF73AFE07B05DF804FB00BF18
:10095000402500202DE9F04182B005460C4617469F
:1009600023480668002004F0A8F901A9C0B201F0EC
:10097000D5F818B1304602B0BDE8F0812C2000FB5C
:1009800004582146284604F0F0FB20B1D8F8103076
:1009900013F0100F0AD024B90126019804F0B2FF19
:1009A000E8E70199284604F0CCFCF5E73B46019ABC
:1009B00041462846FFF7B8FF0646019D29464046B6
:1009C000FFF798FF18B10B4B1B68B342E5D03CB959
:1009D00064B9094A4521094804F024FF0126DCE7EF
:1009E000AA680021284604F0DDFFF1E7044AF1E798
:1009F00000000020DC1800206086000068860000EF
:100A00005486000070B505460E46002003F068FFCE
:100A10000446022805D0042803D0032801D020462C
:100A200070BD324601212846FFF794FF044B1B6836
:100A30008342F4D0012801D00524F0E70446EEE714
:100A4000DC18002030B583B005460C460023009327
:100A50000193084604F00CFC30B32A68194B9A4203
:100A600016D0EA6A174B9A4218D0019B009A93421B
:100A700000D90093009BA360009A2146284600F00D
:100A800031FC114B1A68002A16DC002003B030BD7F
:100A90006A460021284604F011FBE2E701AA012181
:100AA000284604F00BFBE0E704F10801002004F005
:100AB000B3FAA3680093DFE75721044804F0B2FEBD
:100AC000E3E700BF3DB8F396402600209086000083
:100AD00038B504460D46FFF7B5FFEB7984F858307A
:100AE000033BDBB2012B0BD9EB79022B11D0042B8A
:100AF0000FD0032B0DD094F85830FF2B12D038BDF7
:100B0000002004F0C9FC0028EED0FF2384F8583000
:100B1000EAE7002004F0ADFC0028ECD0FF2384F8C5
:100B20005830E8E74521024804F07CFEFEE700BFAC
:100B3000C086000038B504460D4604F05EFB68B977
:100B400000221146204604F06EFB80B9204600F0DA
:100B5000D3FAA8B9012384F8583007E0802257213E
:100B6000304804F05FFE012384F8583038BD00227D
:100B700057212D4804F056FE012384F85830F5E73C
:100B8000284604F06BFB2946204604F034FCF0B9FB
:100B9000284604F06DFB80F001012A46C9B22046C8
:100BA00004F041FBE0B9284604F062FB08B3EB799E
:100BB000012B2BD02A4601212046FFF7CBFE1B4BF1
:100BC0001B68984229D0052384F85830CEE70022CC
:100BD0005721174804F026FE012384F85830C5E752
:100BE00000225721104804F01DFE012384F85830DC
:100BF000BCE729462046FFF76BFF2A460021204626
:100C000004F011FB012384F85830AFE72946204651
:100C1000FFF7F8FE84F85800A8E7EB7984F858301D
:100C2000A4E700BFCC86000010870000DC1800207D
:100C30003C8700002DE9F04F83B00F4690461E46DA
:100C4000DDF830900D9D00241EE00CF5C072224BA3
:100C5000224943F822100CF1010C5FFA8CFCBCF124
:100C6000070FF2D91E4B93E8030002AB03E9030020
:100C7000002307E003F5C0711A4A184842F8210022
:100C80000133DBB2072BF5D9AC421DD2A5EB040A28
:100C9000BAF5806F01D94FF4806A5346124AA11900
:100CA000384604F030FE98B953460F4A04EB090168
:100CB000404604F046FE68B95444074B00934FF099
:100CC000000C8DF804C0CAE7002003B0BDE8F08F27
:100CD0000120FAE70120F8E7008001503546526E06
:100CE0000885000000900150401900202DE9F041D6
:100CF00084B0044688463F4B1F686022002105F0FF
:100D00006EF83D4B63623D4B23654FF0FF36002587
:100D10000DE02946002003F0D0FF2C2305FB03F350
:100D20002033E118C0B200F0F9FE06460135012D6E
:100D3000EFD969462046FFF7FDFE94F858308DF84C
:100D40000730042B2ED8022B38D2012B3CD194F83B
:100D50005830FF2B3CD0012B06D06A46002120469C
:100D600004F061FA0646A0B9002211462046FFF7BA
:100D7000F1FD0746224B1B6898420AD1204604F039
:100D800086F9064628B90021204604F076F9064681
:100D900018B3204604F082F906B93E46304604B046
:100DA000BDE8F081052B0FD1002004F075FB06464D
:100DB0000028CCD0FF2384F85830C8E76946204685
:100DC00004F067FA0646C2E7FF2384F85830BEE70E
:100DD00045210C4804F026FDFEE71022002168465C
:100DE00004F0FDFF42460021204604F048F9044B80
:100DF0001F68CEE700000020401D00204021002099
:100E0000DC180020C086000008B501460148FFF745
:100E10006DFF08BDE01800202DE9F04383B00F46B8
:100E200015461C46DDF82880536A53F830601A686E
:100E3000B61A013853F83030A3EB02092368012BAE
:100E40001BD03A463146404604F077FA01970096A7
:100E50004B46424641462846FFF7ECFE21462846CF
:100E600004F038FA23680133236018B10C4A136880
:100E70000133136003B0BDE8F083E368022B04D1B3
:100E80000B99284604F05DFADBE74146284604F05A
:100E900058FA22464146284604F08BFAF0E700BF94
:100EA000402600202DE9F04383B00F4615461C462E
:100EB000566A56F830203368A2EB0308013856F81A
:100EC0003060F61A2A6D52F830101368A1EB03094E
:100ED0002279012A05D02279022A1CD003B0BDE86C
:100EE000F0833A4631460A9804F027FA01970096B3
:100EF0004B460A9A0B992846FFF79CFE2146284646
:100F000004F0E8F9022323710028E4D0114A1368A1
:100F100001331360DFE73A4649460B9804F00DFAB7
:100F20000197CDF8009043460B9A0A992846FFF79F
:100F300081FE2146284604F0CDF923680133236061
:100F4000012323710028C9D0024A136801331360BA
:100F5000C4E700BF4026002070B582B015461E468B
:100F6000002B36D0436A5C687379012B11D0022BB9
:100F700017D00024002003F0A0FE01A9C0B200F0A9
:100F8000CDFD68B30124019804F0BCFC204602B0FA
:100F900070BD01BB32681C4B1B689A42EAD8002422
:100FA000E8E73368012B07D9174A1268934203D840
:100FB00099B900240121DDE7012B01D00024D9E7F4
:100FC00001B100240129D5D13379022BD2D10021DE
:100FD000D0E70024CEE70024CCE700242146C9E76F
:100FE00020232A462146019804F08DFC044640B98E
:100FF000002EC8D02A68054B9A42C4D04FF0FF3467
:10100000C1E70124BFE700BF040000203DB8F3960C
:101010002DE9F04F85B007460C46019201460020AD
:1010200003F0E6FF051E5DDBE36D0093384603F039
:10103000EAFF81464FF0000B4FF001084FF0FF3AF6
:1010400004E0BAF1FF3F1DD02546B046002D1BDD60
:101050006C1E9DF8001001230DF10F0204FB01919D
:10106000384604F050FC061E3EDB01220DF10F0154
:10107000384606F075FF0028E3D04645E4D00BF172
:10108000010BE1E7AA46DFE7BBF1010F0EDCBAF185
:10109000FF3F2DD0BAF17F0F0DDC012301994B7179
:1010A0000AEB03020A600B7100201EE04521114883
:1010B00004F0B8FBEBE70223019A5371AAF1800A0E
:1010C0000AEBDA735B1001331360BAF1000F0AF018
:1010D000010AB8BFCAF1000A0AF1010A82F804A0A5
:1010E000002002E0072000E0012005B0BDE8F08FFD
:1010F0000020FAE76887000038B5856A446DAC4285
:1011000002D0631CAB4211D1802D15D800231946A3
:101110009C421DD9426A02EBC3025168026D02EB88
:10112000C302526891420DD10133F1E757211148B2
:1011300004F078FB00200AE057210F4804F072FB0E
:10114000002004E057210D4804F06CFB002038BD5E
:10115000AC420DD2426A02EBC3035B688B4201D101
:101160000120F4E75721054804F05CFB0020EEE77E
:101170000120ECE78C870000C4870000F4870000A2
:1011800000B589B006A9012006F0B2FF9DF818301D
:10119000012B3BD0032B37D0244B9DF819209DF811
:1011A0001A109DF81B00029001910092204A4921DB
:1011B000204804F037FB04A9022006F099FF9DF8AF
:1011C0001030012B26D0032B22D0184B9DF8112074
:1011D0009DF812109DF81300029001910092164A9A
:1011E0004921144804F01EFB9DF81830012B03D14F
:1011F0009DF81A30032B0FD04921104804F012FB40
:10120000002009B05DF804FB0D4BC6E70D4BC4E7A9
:101210000B4BDBE70B4BD9E79DF81030012BEBD0E4
:101220004921094804F0FEFA0220EAE7208800007C
:10123000348800004488000088880000B8880000D6
:101240002C880000248800009888000070B586B0C3
:101250000C464B6803F0FF231C498B4204D1064621
:1012600015462368012B01D006B070BD04A91046B5
:1012700006F0F1FE9DF81030012B25D0032B21D074
:10128000134B9DF811209DF812109DF81300029049
:10129000019100920F4A49210F4804F0C3FA9DF8CA
:1012A0001030032BE0D12946304604F04AF8284696
:1012B00006F0C4FEA168284603F0CFFE284603F0DE
:1012C00001FBD1E7054BDCE7054BDAE70001000441
:1012D0002088000088880000448800002C880000D6
:1012E00024880000F0B585B007460D460024374B32
:1012F0001C60436A5E68344434490B6801330B60F8
:10130000A242F8D8284603F0B3FF70B1F86D03F09D
:101310006AFEBA6A013A00233344834201D2013A99
:10132000FAE72A4B1B68934213D203A9012000F06D
:10133000F5FB02A9022000F0F1FB029A294638468B
:10134000FFF784FF6B79012B0AD002236B71012414
:1013500021E057211E4804F065FA0123EB7132E0C9
:101360001A4B1C6800E0013C8CB12A68174B1B68C3
:101370009B1A01339C42F6D8029B0193039B009376
:101380002B463A4631462046FFF746FDEBE7012360
:101390002B60DAE701340D4B1B689C420DD82B689B
:1013A0009C42F7D3029B0193039B00932B463A4642
:1013B00031462046FFF776FDECE7039804F0A2FAE9
:1013C000029804F09FFA05B0F0BD00BF04000020B1
:1013D000D088000008B50B6801330B60014B1B6817
:1013E000984708BD08000020014B1860704700BFF7
:1013F0000800002000B583B002460B460021019191
:1014000001A9034800F0B2F803B05DF804FB00BF87
:10141000D51300002DE9F04383B004460846154675
:10142000238B13F0080F05D103F007060023009368
:10143000019369E0012909D043F02003238385F358
:101440001188BFF36F8F03B0BDE8F08343F0100342
:101450002383F4E7204604F0B6F857E0D4F814905C
:101460004A466946204604F0C7F800275AE0236937
:101470001F680621204604F07FF84FF0000951E074
:1014800023695F680421204604F076F84FF00009D4
:1014900048E023699F680521204604F06DF84FF06D
:1014A00000093FE0002246E0002244E043F0080348
:1014B000238385F31188BFF36F8F002944D1009BEC
:1014C0002BB14B4642466946204604F00CF917B151
:1014D00025492046B8474FF02003EFF3118583F3E9
:1014E0001188BFF36F8F238B23F008032383238B93
:1014F00013F0100F2ED023F0100323830120268B2E
:1015000006F0070600289AD00228A3D0002896D01B
:101510000128A3D00328AAD00428B1D00528B8D028
:101520000027B946238B03F00708B045BAD0A2685C
:10153000002AB9D001221146002AB7D1009A002A08
:10154000B4D1002FB2D1D2E74A464146204604F03A
:101550001BF8B4E713F0200F04D023F020032383FB
:101560000220CCE70020CAE7155700002DE9F04F14
:101570008FB005468A46079302F1FF3B002444E200
:1015800020460FB0BDE8F08F0BF1020B00200146A2
:1015900003904FF0FF33019302939BF800301A46FB
:1015A0007A2B00F2F081DFE813F07B00EE01EE0110
:1015B000EE01EE01EE01EE01EE01EE01EE01EE01B3
:1015C000EE01EE01EE01EE01EE01EE01EE01EE01A3
:1015D000EE01EE01EE01EE01EE01EE01EE01EE0193
:1015E000EE01EE01EE01EE01EE014202EE01EE012E
:1015F0004202EE017D00EE01EE01EE01EE01AF00D0
:101600004202EE013F028200EE0189009300930046
:101610009300930093009300930093009300EE01D6
:10162000EE01EE01EE01EE01EE01EE01EE01EE0142
:10163000EE01EE01EE01EE01EE01EE01EE01EE0132
:10164000EE01EE01EE01EE01EE01EE01EE01EE0122
:10165000EE01EE01EE01EE01EE016C01EE01EE0194
:10166000EE01EE01EE01EE01EE01EE01EE01EE0102
:10167000E001DB00EE01EE01EE01C400DB00EE0153
:10168000EE01C400EE01EE01EE016C01EE01EE018F
:10169000CE01EE01DB00EE01EE016C01EE01C400B3
:1016A00020466EE751462520A8470134ADE1039B53
:1016B00003F0FE0303930023019313E0029B002B2E
:1016C00006DA019B002B03DA039B002B00F0B181AB
:1016D000019B002B09DB03EB830302EB4302A2F126
:1016E000300301930BF1010B57E7029B002B08DB42
:1016F000029B03EB830302EB4302A2F1300302934C
:10170000F0E700230293F3E7019B002B05DB079B27
:101710001A1D07921B680193E4E7079B1A1D0792A5
:101720001B680293002BDDDA5B42029302230393D2
:10173000D8E7682B0BD06C2B0ED059B15146252021
:10174000A84751469BF80000A84702345DE168298C
:10175000F1D148231946C5E76C29EED14C23F9E7AE
:101760007A290DD06C295FD04C2965D0752B6ED0AD
:10177000079B1A1D07921B681F464FEAE37806E095
:10178000079B1A1D07921B681F464FEAE3789BF8D8
:101790000030752B02D0B8F1000F5FDB202866D037
:1017A0002B2869D0A44E4FF00009CDF814B0069450
:1017B0000A22002338464146FEF7CCFCCDF81090B3
:1017C00009F1FF3930320DF1350303F80920BB462A
:1017D00044460A22002338464146FEF7BBFC074632
:1017E0008846BBF10A0F74F10003E1D2DDF814B0B2
:1017F000069C049BC3F10108143308AAD318049370
:10180000019B002BC0F2D280029BA3EB0807019A38
:10181000A2EB0809B9F1000F00DD9F1A039B13F03A
:10182000020F40F0D680CDE0079B1A1D07921B687F
:101830001F464FEAE378AAE7079B073323F0070325
:1018400003F1080207921F685B6898469FE7079BB1
:101850001A1D07921F684FF0000898E77E4237462E
:1018600068EB4808029B013B0293744E9BE7029B86
:10187000013B0293724E96E7029B013B0293714E2D
:1018800091E7702B0ED1079B1A1D07921B681A4611
:10189000002123BB4FF00508002301936A4B0493FA
:1018A000654EADE76C290AD04C290ED0079B1A1D56
:1018B00007921A680021232811D05F4E18E0079B79
:1018C0001A1D07921A680021F5E7079B073323F0DA
:1018D000070303F1080207921A685968EBE79BF8BF
:1018E000003013F0200F0BD0584E029B023B0293A6
:1018F0009BF8007007F06007393F4FF0000E14E0CE
:10190000534EF2E70EF1FF3030330DF1350C0CF889
:101910000030130943EA01734FEA111C102A71F1D8
:10192000000208D386461A46614602F00F03092BCF
:10193000E8D93B44E6E7CEF101080EF1140308AA0A
:10194000D31804935CE7079B1A1D07921B68049346
:10195000184604F0EFF98046019B002B1CDB834204
:101960001EDB00230193344E4AE7079B1A1D0792A2
:101970001B688DF820304FF001080023019308AB5D
:1019800004932D4E3CE751462520A84751469BF82D
:101990000000A847023438E000230193264E2FE7C9
:1019A000DDF8048000230193234E29E7039B13F005
:1019B000010F3FF429AF029B019325E751462020F8
:1019C000A8470134013FF9D503E001365146A84745
:1019D000013430780028F8D103E051463020A84780
:1019E0000134B9F10109F8D5049E04E0514616F816
:1019F000010BA8470134B8F10108F7D503E05146BF
:101A00002020A8470134013FF9D50BF101069BF8CE
:101A1000010025283FF4B8AD00283FF4B1AD514690
:101A2000A8470134B346F0E7022303935AE6184669
:101A300058E60123039355E6A4940000148A00009D
:101A4000188A00001C8A0000288A0000248A0000EE
:101A5000208A00004FF02003EFF3118C83F31188EC
:101A6000BFF36F8F0121124BC3F80015114A0223F7
:101A7000C2F8D0361048D0F8003223F0E04343F0EB
:101A80004053C0F80032D0F8043223F0E04343F072
:101A90004053C0F80432C2F80417C2F80419C2F85F
:101AA000001B8CF31188BFF36F8F0020704700BFBD
:101AB00000100050004000500025845070B108B55F
:101AC0000246074B1B680748A0FB03139B0C03FB54
:101AD00002F0054B43F00103984708BD704700BF73
:101AE0004000002083DE1B43208500008446002345
:101AF00000E00133074A12689A4208DD1A010649DC
:101B0000096801EB03108A5C6245F2D100E0002015
:101B1000704700BFB48A00000C000020084B1B680F
:101B20003BB110B50C46FFF7E1FF28B12060002063
:101B300010BD6FF00C0070476FF00100F8E700BFB8
:101B40000C00002000B58BB003AB0093024B03F0F8
:101B5000B2FE0BB05DF804FB7B58000010B50446E4
:101B60000A2807D0074B1868E1B283685B6898477A
:101B7000204610BD034B186883685B680D219847A9
:101B8000F0E700BF4426002010B5044C204600F0CA
:101B900091FE2046FFF728FC10BD00BF5D1B000032
:101BA00008B5044802F040FF034B1860FFF7ECFF54
:101BB000002008BDB88A0000442600200048704775
:101BC000D4260020034BC01A8010034B03FB00F007
:101BD000704700BF5C260020B76DDBB638B5054600
:101BE0000C46FFF7EFFF01464022034803F091FF48
:101BF00001462846A04738BDDC81000030B583B0DF
:101C000005460C46FFF7DEFF0146402300932346BE
:101C1000054A064803F097FF011E01DB03B030BD03
:101C20002846A047FAE700BFA95B0000DC8100005E
:101C300008B5052815D8DFE800F0031A14141510AC
:101C400000210D4803F0EEFE836813F0070F08D162
:101C50000021094803F04BFF03E00221064803F08E
:101C600046FF08BD0321044803F041FFF9E70121C5
:101C7000014803F03CFFF4E7DC81000010B54FF0B1
:101C80002003EFF3118483F31188BFF36F8F134A9E
:101C9000136843F00203136013F0010F08D100230F
:101CA00084F31188BFF36F8F9BB903F085FF10BDDC
:101CB0004FF05023D3F80C24D3F80C3412F0010F5A
:101CC00001D10023ECE7FFF779FF03F0FDFE0123CC
:101CD000E6E70021024803F00AFFE8E7FC260020BF
:101CE000DC81000008B5084BD3E8EF2F22F0020199
:101CF000C3E8E01F0028F7D112F0010F00D008BDA3
:101D000003F06EFFFBE700BFFC26002070B506461F
:101D100000220121052000F075F9052000F056F998
:101D2000114801F02DFC114B984219D104F0F9FB38
:101D30000024032C12D82146304603F073FE0546DA
:101D40002146304603F07BFE094903F0F1FC0028F0
:101D500005DB0123AB601C44E4B2EAE7002070BD60
:101D60006FF00400FBE700BF311C00000000AD0B6A
:101D7000448B000070B50546012807D14FF0502371
:101D8000D3F81C3403F00303022B3ED006F0EDF928
:101D900020B92E4B1B789BB1002300E001231E4687
:101DA00083B14FF02003EFF3118483F31188BFF365
:101DB0006F8F9EB94FF050230222C3F808230DE025
:101DC0000123ECE70024F4E7204600F057F94FF038
:101DD0005023D3F81835DBB2012B17D04FF0502227
:101DE000D2F8183403F00303D2F8182412F4803F19
:101DF00023D10022002AE7D0022B01D0012DE3D10C
:101E0000EEB184F31188BFF36F8F70BD4FF0502394
:101E1000D3F80431002BE1D04FF050230022C3F857
:101E20000421D3F804210222C3F81825084A2021EE
:101E3000C2F8801101229A60D0E70122DAE74FF060
:101E400050230222C3F80423DFE700BF0628002046
:101E500000E100E010B504460E4B0121D3E8EF2F5E
:101E6000C3E8E01F0028F9D11AB1631E012B0DD978
:101E700010BD094803F0E3FD084900234B608B6067
:101E8000CB6001238B6003F070FCEEE72046FFF788
:101E900071FFEDE700270020DC8100004C260020C8
:101EA00000F5A870014B53F8200070470050015016
:101EB0004FF480338340024AC2F84833704700BF72
:101EC00000500150014BD3F80405704700500150F9
:101ED00070B5002412E04FF48033A3401A4AD2F8C0
:101EE0000423134209D004F150039B009BB203F179
:101EF000502303F580331B681BB90134002CEADD45
:101F000070BD204603F086FE2046FFF7D1FF204635
:101F1000FFF7C6FF0546FFF7D5FF0646294603F043
:101F200075FEB0F5000F00D82E46084B53F834501C
:101F3000002243F83420002DDFD003EBC4035A689D
:101F400031462046A847D8E7005001500827002016
:101F500008B50023124AC2F80835002B17DD114BD3
:101F60004FF40012C3F8802100220121152000F057
:101F700049F8152000F02AF8094A012393601360FC
:101F8000094A13600220FFF765FF002008BD4FF4E7
:101F900080329A400249C1F804230133DDE700BFD3
:101FA0000050015000E100E0102700201EF0040F57
:101FB0000CBFEFF30880EFF30980816911F8021C70
:101FC0000229FFD001B503F043FE01BD40B2002855
:101FD00007DB00F01F02400901239340014A42F849
:101FE0002030704700E100E04209054B53F8222001
:101FF00000F01F00012303FA00F01040704700BFFB
:1020000000E100E0013140B2002808DB4901C9B21B
:1020100000F1604000F5614080F80013704700F067
:102020000F004901C9B2014B1954704714ED00E08B
:1020300000B58446084611461A46002383F30B88F0
:102040000A4BA3F520544FF0200E84F30B8883F342
:10205000098863B64FF0000383F31188BFF36F8FD5
:10206000E0478EF31188BFF36F8FFEE70850002022
:10207000014910220A60704710ED00E072B6494035
:1020800081F3118820BF80F3118862B6704700BFCA
:1020900010B582B004468368009343680268452106
:1020A0000B4803F0BFFB636900932369E268452195
:1020B000084803F0B7FBE2694521074803F0B2FB8B
:1020C000A2694521054803F0ADFB02B010BD00BF79
:1020D0005C8B0000908B0000C48B0000D88B00004C
:1020E00030BFFFF7FDBF00BF08B50E4B0E4A22F010
:1020F0007F029A60BFF34F8FBFF36F8FD3F88820B2
:1021000022F47002C3F88820EFF3148323F0040351
:1021100083F3148802F030FD02F088FD00F048FAE5
:1021200002F04EFD00ED00E00000000001B5EFF30D
:102130000580A0F110004FEAC0000449014409C91C
:102140009847BDE801400249084700006C82000042
:10215000AD25000006F018F8202080F3118808480B
:102160004FF40061401880F30988EFF314800221D6
:10217000084380F31488BFF36F8FFFF7B5FF0000AB
:1021800008500020EFF30880EFF3098101B5724693
:1021900000F0AEF901BD00BF70B505460E4614460D
:1021A00045212C4803F03EFB2B4B9B6A13F0100F8C
:1021B00026D1294B9B6A13F0080F26D1264B9B6A28
:1021C00013F0020F26D1244B9B6A13F0010F37D175
:1021D000214B9B6A13F0200F37D11F4B9B6A13F0E2
:1021E000100F01D11C4B9B6A1B4A936A43F0FF03FB
:1021F00093620121284603F037FD2070002070BD56
:102200004521164803F00EFBD3E74521144803F09F
:1022100009FBD3E74521134803F004FB0E4B5A6B2F
:102220009B6A13F0800FCED045210F4803F0FAFAD5
:10223000002EC8D0084A936A23F080039362C2E755
:1022400045210A4803F0EEFAC2E74521084803F0A9
:10225000E9FAC2E70C8C000000ED00E0288C0000D9
:10226000608C0000788C0000988C0000B48C00001A
:10227000D88C000070B505460E46144645212E4800
:1022800003F0D0FA2D4B9B6A13F4805F24D12B4BC3
:102290009B6A13F4006F24D1284B9B6A13F4007FD0
:1022A00024D1264B9B6A13F4806F35D1234B9B6A54
:1022B00013F4807F35D1214B9B6A13F4005F35D135
:1022C0001E4A936A43F47F4393620121284603F038
:1022D000CBFC2070002070BD4521194803F0A2FA04
:1022E000D5E74521174803F09DFAD5E74521164863
:1022F00003F098FA114B9A6B9B6A13F4004FD0D0FD
:102300004521124803F08EFA002ECAD00B4A936A78
:1023100023F400439362C4E745210D4803F082FA99
:10232000C4E745210B4803F07DFAC9E745210A4877
:1023300003F078FAC4E700BF0C8D000000ED00E068
:10234000288D0000608C0000408D0000608D000032
:102350007C8D00009C8D0000D88C000010B54521BC
:10236000294803F05FFA294B9B6A13F0007F26D1BE
:10237000264B9B6A13F0807F26D1244B9C6A14F471
:10238000801426D1214B9B6A13F4002F27D11F4BB9
:102390009B6A13F4802F27D11C4B9B6A13F4003FD8
:1023A00027D11A4B9B6A13F4803F27D1174A936AAF
:1023B0006FEA03436FEA13439362204610BD452141
:1023C000134803F02FFAD3E74521124803F02AFA05
:1023D000D3E74521104803F025FA0224D2E745212E
:1023E0000E4803F01FFAD2E745210D4803F01AFA10
:1023F000D2E745210B4803F015FAD2E745210A48F8
:1024000003F010FAD2E700BFBC8D000000ED00E041
:10241000DC8D0000F48D0000148E0000448E00005E
:10242000688E0000948E0000B48E000070B50646E1
:102430000C4645211B4803F0F5F9002323701A4B85
:10244000DD6A15F0020505D1174BD86A10F08040FF
:1024500006D170BD4521154803F0E4F90020F8E7E6
:102460004521134803F0DEF90F4B93F828304BB9A0
:102470000D4B93F829305BB90B4B5B8D9BB26BB95D
:102480002846E6E7224601213046FFF785FEE0E7D1
:10249000224601213046FFF7EDFEDAE73046FFF72E
:1024A0005DFFD6E7E48E000000ED00E0008F000045
:1024B000288F000008B500230B704521014803F068
:1024C000B1F908BD4C8F000008B50F2907DC054A9B
:1024D000A1F110034521044803F0A4F908BD034A03
:1024E000F6E700BF948F0000AC8F0000788F0000EB
:1024F00070B58AB0254B5D68C5F30805002383F3EA
:102500001188BFF36F8F02F07F43B3F17F4F1ED16D
:1025100002F00C03082B10D012F0080F14D00C4658
:1025200000260DF127022946204603F09FFB0546B1
:102530009DF8273073B10AB070BD4521144803F0EF
:1025400071F900263446ECE704460126E9E7002647
:102550003446E6E72022214601A803F011FC4EB1E3
:10256000089BC3F308025AB96FEA53236FEA432367
:10257000089305E0089B23F4FF7323F001030893FD
:1025800001A9284603F058FBD5E700BF00ED00E0A5
:10259000C48F0000044B5A6942F010025A615A6914
:1025A00042F480625A61704700ED00E0704700BF5E
:1025B000002207E003F1604303F56143202183F823
:1025C00000130132442A09DC53B2002BF2DA02F084
:1025D0000F01034B0B4420211976F2E7704700BF2F
:1025E000FCEC00E008B5034B034A0121034803F06B
:1025F0009DFB08BD0000072000000020F88F0000B0
:10260000024B034AC3F8C020704700BF00ED00E052
:10261000AAFF44000B6823F01F0291F808C00CF0D9
:102620001F031A43CB6823F01F034FEA5C1C43EAE5
:102630004C0343F001030449C1F89800C1F89C2001
:10264000C1F8A030704700BF00ED00E010B50446AF
:10265000072803D8FFF7DEFF204610BD02464521BC
:10266000024803F0DFF86FF01500F6E70490000071
:102670002DE9F04F87B08146009101931446002761
:1026800049E03A464521674803F0CCF86FF015045D
:1026900009E06FF0150660E032464521624803F01C
:1026A000C1F86FF01504204607B0BDE8F08FD8459B
:1026B0006FD12946F0B203F01AFB2BE05B4AC2F857
:1026C0009800D2F89C3003F01F0321F01F0119433A
:1026D000C2F89C102946E0B203F009FB044610F151
:1026E000160FE0D0013415E0013B504AC2F89800C3
:1026F000D2F8A01001F01F0123F01F030B43C2F812
:10270000A0302946E0B203F0F2FA044610F1160FA9
:10271000C9D001340137009B9F42C4DA07EB47055B
:102720004FEA850A09EB8505D5F80480B8F1000F5A
:10273000F0D0019B23B1284603F0C7FA0028A0D0AF
:1027400059F80AB0584603F0B6FA064608EB0B00F3
:10275000013803F0B0FA86429BD116F1160F9BD0D8
:10276000631EB34298DB3046304BC3F89860D3F811
:102770009C2022F01F02C3F89860D3F8A03043F0E9
:102780001F0859F80A306968194401F1FF3B9A4261
:102790008DD09A4292D0D845A6D0013B234A064616
:1027A000C2F89800D2F8A01001F01F0123F01F0317
:1027B0000B43C2F8A0302946E0B203F098FA044671
:1027C00010F1160F3FF46FAF0130184BC3F898604B
:1027D000D3F89C109DF8102061F304028DF81020AE
:1027E000D3F8A030C3F34203D2B263F347128DF89B
:1027F000102059F80A306A681344029323F01F032B
:10280000A8EB0B084344013B23F01F03059302A9E7
:10281000C0B2FFF71BFF044610F1160F3FF443AFA1
:10282000013477E7309000005890000000ED00E0A0
:1028300010B5034C01232278FFF71AFF207010BD5A
:1028400004280020044B0522C3F89420BFF34F8FC7
:10285000BFF36F8F704700BF00ED00E0BFF35F8FE5
:10286000024B0022C3F89420704700BF00ED00E047
:1028700038B50E4B1D68082D15D8FFF7EFFFFFF791
:10288000BFFE002407E0094B596801EB0411204604
:10289000FFF7C0FE0134A542F5D8054B1D70FFF7C8
:1028A000D1FF002038BD4FF0FF30FBE790900000D3
:1028B00004280020014B1860704700BF1000002062
:1028C00070B543685E683B4B13403B4CA3422BD032
:1028D00014D8062B2BD005D9B3F5801F0BD14FF0A0
:1028E000010E19E033B3022B02D14FF0040E13E0B6
:1028F0006FF015004EE06FF015004BE02F4CA34237
:102900001BD0B3F5A00F02D14FF0030E04E0B3F5D6
:10291000800F4BD14FF0020E12F0100F10D112F0B9
:10292000200F38D001240CE04FF0070EF4E74FF0F1
:10293000060EF1E74FF0000EEEE74FF0050EEBE765
:102940000324C2F3402C12F4807F0CBF0125002524
:1029500012F4007F05D012F4006F1ED001238B40CB
:10296000B3604368187A01F01F0343EA4011490934
:10297000012919D01248803350F8231001F0E041AA
:102980004CEA450242EA840242EA0E220A4340F837
:102990002320002070BD0024D3E712F4806FE0D024
:1029A00001238B40F360DCE70648E4E76FF0150095
:1029B000F0E700BF0600F000060010000200400033
:1029C000002584500028845008B5144BD3F80433F4
:1029D0005FFA83FC002300E00133072B1DD803F5C9
:1029E000A2720E4951F82220C2F305229042F3D17F
:1029F0002CFA03F212F0010FEED00A4603F5A27092
:102A000051F8201021F0010142F8201001219940D5
:102A1000C2F80813D8B200F047FF08BD00D000503C
:102A200070B582B004460D460DF1070000F058FF66
:102A30001C4B984232D19DF8073003F140029200BE
:102A4000194E03F5A27356F8231021F44F3121F4E7
:102A5000407146F8231056F82310240204F47C54E5
:102A60002D0405F440352C430C4346F8234002F175
:102A7000A04303F55043002018601B689DF8071021
:102A800001F5A27356F8232042F0010246F82320F4
:102A900001238B40C6F8043302B070BD6FF0120002
:102AA000FAE700BF0000AD0B00D0005008B50B4B9B
:102AB0001B780BB1002008BD084B01221A700022C0
:102AC00005210D20FFF79EFA0D20FFF77FFA044B3A
:102AD0004FF00042C3F80423ECE700BF05280020B4
:102AE00000D0005070B504694568E1686269A36967
:102AF000134321EA03010123002011E04FF0020EED
:102B00001EE0144E0CF1800C56F82C2022F44032BA
:102B100042EA0E4246F82C2021EA030101305B0014
:102B2000B9B10B42FAD02E7A00F01F0242EA4612E7
:102B3000266926FA00FC1CF0010FDFD14FF0030ECE
:102B40005FFA8EFE02F01F0C5209012AD9D0024E04
:102B5000D8E770BD00288450002584502DE9F0414D
:102B600003694768DE685A699869024326EA0206E3
:102B70007A6812691869504026EA00003446012339
:102B80004FF0000C16E0DFF874E026E002F01F0EB4
:102B90005209012A2CD0DFF868800EF1800258F823
:102BA000225025F4403548F8225024EA03040CF161
:102BB000010C5B00FCB12342F9D03D7A0CF01F02FE
:102BC00042EA45123342E1D102F01F054FEA521E9C
:102BD000BEF1010FD7D0DFF828E080355EF8255030
:102BE000C5F30145022DD1D10D681D430D60CDE720
:102BF000DFF80880D1E7BDE8F08100BF00288450ED
:102C00000025845070B50D46066943681B7A01F0B3
:102C10001F0444EA43142046FFF7D6FE04F01F03C6
:102C20006209012A1ED02349803351F8232022F45F
:102C3000403241F82320F368EB4013F0010F37D006
:102C40007369EB4013F0010F15D0B369EB4013F03B
:102C5000010F09D1316921FA05F515F0010F08D0EE
:102C6000012102E01449DFE703212046FFF7D8FEE7
:102C70001FE00221F9E7316921FA05F515F0010F8E
:102C800012D10323D9B204F01F026409012C0DD024
:102C90000848803250F8223023F4403343EA01439D
:102CA00040F82230002004E00223EBE70248F0E77E
:102CB000002070BD002584500028845070B5046940
:102CC00045682D7A01F01F0C4CEA451CB2F5A03F77
:102CD00028D0B2F5005F38D0E5684FF0010C0CFA4F
:102CE00001FC45EA0C05E560B2F5A03F35D062690C
:102CF00001258D4022EA05026261B3F5C02F31D073
:102D0000A26901258D4022EA0502A261B3F5802F58
:102D10002DD0236901228A4023EA02032361FFF7B1
:102D200071FF70BD0CF01F054FEA5C1CBCF1010F78
:102D300009D0114E803556F8255015F0010FC8D036
:102D40006FF08500EDE70D4EF4E7E5684FF0010CFC
:102D50000CFA01FC25EA0C05C5E7626901258D40E6
:102D60002A43C9E7A26901258D402A43CDE723699B
:102D700001228A401343D1E7002584500028845063
:102D800070B584B000230293039300930193474BE3
:102D9000D3F87C410CB9002113E0454D6946284623
:102DA000FFF7DCFE029001A905F11800FFF7D6FE3F
:102DB00003903E4B0022C3F87C21D3F87C31EAE734
:102DC000013107292DD801F140039B009AB201235C
:102DD0008B403648D0F804030342F1D002F1A043FF
:102DE00003F550431B68002BEAD001F5A2732F486E
:102DF00050F82300C0F34033C0F30420012505FA46
:102E000000F004AD05EB830353F8085C054343F879
:102E1000085C02F1A04303F5504300221A601B68CE
:102E2000CEE7029E2EB9039EEEB9002C35D104B038
:102E300070BD204B596819B10D4649B10D6807E0C6
:102E40000D4605E06DB12B4605B12B6829461D46A0
:102E50000029E8D08A683240F4D04B68144898477B
:102E6000F0E72B46F2E7144B596819B10D4649B10A
:102E70000D6807E00D4605E06DB12B4605B12B68E6
:102E800029461D460029D0D08A683240F4D04B68CC
:102E90000A489847F0E72B46F2E7054C2046FFF733
:102EA00021FE04F11800FFF71DFEC0E700D000501E
:102EB000248200001C270020382700203C820000CC
:102EC000034BD3F8003413F0010FF9D0704700BF63
:102ED00000900350024B0B6001231360704700BF4A
:102EE00058270020004870479491000070B50D46A7
:102EF000164603F0ADFB044603F0A6FBA84208D932
:102F0000002D16DB864216D87319984215D301237B
:102F100000E000230BB3B5FBF4F304FB135373B9C8
:102F2000B6FBF4F304FB13634BB9B44210D9002091
:102F300070BD0023EEE70023ECE70023EAE7334609
:102F40002A464521094802F06DFC6FF01500EFE7B5
:102F50003146284602F0D9FFEAE733462A464521A2
:102F6000034802F05FFC6FF01500E1E704910000F8
:102F70002891000010B503F06FFB034C206003F0B4
:102F800067FB6060002010BD5827002070B50C461C
:102F900016461D4603F058FBA04208D9002C0BDB57
:102FA00085420BD82B1998420AD3012300E0002355
:102FB00043B185B9002070BD0023F9E70023F7E78E
:102FC0000023F5E72B4622464521064802F02AFC5D
:102FD0006FF01500EFE72A462146304602F0D0FE9A
:102FE0000020E8E72891000070B50C4616461D4603
:102FF00003F02AFBA04208D9002C11DB854211D82E
:103000002B19984210D3012300E0002373B114F070
:10301000030F14D115F0030F11D1CDB9002070BDED
:103020000023F3E70023F1E70023EFE72B462246D6
:1030300045210A4802F0F6FB6FF01500EFE72B463A
:1030400022464521064802F0EDFB6FF01500E6E749
:103050002A463146204602F079FFE0E72891000039
:103060004C91000043681A68B1F5164F6FD03AD8FA
:10307000B1F5165F6ED00AD9B1F5E14F75D024D9FC
:1030800047F6122399422BD14FF4000313E0B1F518
:10309000966F61D007D9B1F5166F63D0B1F5965F21
:1030A00010D13C4B07E0B1F5967F58D0B1F5167FB3
:1030B00005D14FF41C33C2F82435002070476FF05F
:1030C000150070476FF015007047B1F5615F4ED085
:1030D000B1F5964F01D1304BEDE76FF01500704719
:1030E0006FF015007047B1F5613F42D009D9B1F5D5
:1030F000612F46D01FD9294B994248D14FF08053B8
:10310000D9E7B1F5963F37D005D9B1F5E13F0FD1F9
:103110004FF0EB73CFE74DF6C02399422ED0B1F5B7
:10312000614F02D14FF46B03C5E76FF01500704794
:103130006FF0150070471A4B994225D0B1F5E12F79
:1031400002D14FF0E863B6E76FF0150070474FF417
:103150001D03B0E7134BAEE74FF49E23ABE74FF4EC
:10316000A033A8E74FF41D23A5E70F4BA3E70F4BB0
:10317000A1E74FF06C739EE70D4B9CE74FF465039E
:1031800099E74FF0706396E74FF0806393E76FF035
:103190001500704700B0130000A04E0040420F0021
:1031A00090D003000050270000C0750000F03A00E6
:1031B00000903A012DE9F04105460F46D0F8108005
:1031C00004F0D3FF20B9164B1B7843B1002300E075
:1031D000012353B9284603F0F3F8064613E0012310
:1031E000F7E784F31188BFF36F8F4FF02003EFF3FD
:1031F000118483F31188BFF36F8F2646284602F0AF
:10320000C2FF0028EDD0414601F8147F0122284674
:1032100002F0D3FF86F31188BFF36F8FBDE8F08112
:103220000628002038B505460C4601F1160000F0CE
:10323000EDFA0C4B98420ED1A37D43F00043C5F844
:10324000A031C5F88C30A27D01239340064AC2F814
:103250000435002038BD4521044802F0E3FA6FF040
:103260000400F7E70000AD0B007001509C910000D6
:103270002DE9F04106460C4643681D6807690023A6
:10328000C5F8003538600B6803F01F015B09012B9E
:1032900000F083805B4A01238B409360236803F036
:1032A0001F025B09012B7AD05649803251F8223037
:1032B00003F0E04343F0030341F822306368B3F1C5
:1032C000FF3F6ED122686368C5F80C25C5F8143538
:1032D000A368B3F1FF3F76D1E368B3F1FF3F18D0A5
:1032E00003F01F025B09012B7FD046490123934065
:1032F0008B60E36803F01F025B09012B77D0414923
:10330000803251F8223003F0E04343F0030341F8E8
:103310002230E268A368C5F80825C5F81035316980
:103320000431304602F0B2FE804698BB73685B6899
:1033300013F0080F5DD10823C5F800356368B3F1B9
:10334000FF3F0CD00023C5F81031D5F8103107F13C
:103350001503C5F834350123C5F838352B6073687B
:103360005B6813F0080F03D14FF48073C5F8043382
:1033700073685B6813F0100F03D04FF48003C5F837
:1033800004331437C5F844750023C5F848350123C4
:10339000AB60EB604046BDE8F0811B4A7BE71A4911
:1033A00083E703F01F025B09012B0AD01549803225
:1033B00051F8223003F0E04343F00C0341F822308F
:1033C00080E71149F3E703F01F025B09012B0AD0E4
:1033D0000C49803251F8223003F0E04343F00C03F3
:1033E00041F8223078E70849F3E707497EE70649C4
:1033F00086E739462846FFF715FF00289BDA804606
:10340000C8E700BF002584500028845030B585B03F
:1034100005460A4B6C460FCB84E80F0000220121C1
:103420000820FEF7EFFD0820FEF7D0FD012221461F
:103430002846FFF71DFF05B030BD00BF1085000016
:103440004FF05023D3F8582502F00302024BD3402B
:10345000024A1360704700BF0020A107400000200F
:1034600008B503F043F868B13E4BD3F8203A4BB9A6
:103470003C4B0D22C3F8202A0122C3F81C2900224C
:10348000C3F81C2900220BE002F160034FF47F0116
:1034900051F83310DB0003F57F035B680B600132EA
:1034A0001F2A08D802F160034FF47F0151F833302E
:1034B000B3F1FF3FE8D102F0F1FF30B1294B2922EF
:1034C000C3F80C270322C3F83C2702F09DFF40B14C
:1034D000254B264AC3F830254FF050230122C3F86C
:1034E000582502F0A5FF18B1214B0022C3F84C2546
:1034F00002F0B6FF68B14FF05023D3F8003413F058
:10350000010F06D04FF050230022C3F81421C3F856
:10351000182102F0B9FF60B14FF05023D3F8003406
:1035200013F0010F05D04FF050236FF00102C3F8E4
:10353000002402F0C7FF18B10A4B6522C3F80C271C
:103540000C4AD2F88C3043F44063C2F88C300A4AFB
:1035500011680A4BC3F84415D269C3F84C25FFF72C
:103560006FFF08BD00400050009003504400EFBEC4
:103570000020035000ED00E00080FF0000600050DC
:10358000054B1B792BB9044B186001221A710348B3
:1035900070470348704700BF842700200000AD0B30
:1035A0000C00AD0B70B50446032800F2C980DFE8BB
:1035B00000F002131F2D4FF050230222C3F80823FE
:1035C0000022C3F80421D3F804210122DA60012C7F
:1035D0002AD042F210759EE04FF050230122C3F82A
:1035E00008230021C3F80011D3F800115A60EEE758
:1035F0004FF050234FF40072C3F808230022C3F8A1
:103600002421D3F8242101225A62E0E74FF050230D
:103610004FF48072C3F808230022C3F82021D3F8A6
:1036200020210122DA61D2E7264642F2107535E008
:103630004FF05023D3F8186406F00306D3F818347B
:1036400013F4803F3AD100231FE04FF05023D3F80A
:103650000C6406F00106D3F80C3413F4803F2FD12C
:10366000002312E04FF05023D3F85C6406F001060B
:10367000D3F85C3413F4803F24D1002305E04FF0ED
:103680005023D3F85434C3F30043002B58D0012EF9
:1036900056D1012002F041FF013D51D0032C0BD83F
:1036A00001A353F824F000BF313600004B36000070
:1036B000653600007F3600000023E6E70123E4E7DB
:1036C0000123E2E70123E0E74FF05023D3F8183459
:1036D00013F4803F2ED1002317E04FF05023D3F88E
:1036E0000C3413F4803F27D100230EE04FF0502319
:1036F000D3F85C3413F4803F20D1002305E04FF071
:103700005023D3F85434C3F30043CBB1012002F06B
:1037100004FF013D14D0032C0AD801A353F824F070
:10372000C9360000DB360000ED360000FF36000031
:103730000023EAE70123E8E70123E6E70123E4E7C2
:1037400070BD00BF08B54FF05023D3F8003163B10E
:103750004FF050230020C3F80001D3F800210122CC
:10376000C3F80823284B1B6898474FF05023D3F821
:103770000431BBB14FF050230022C3F80421D3F829
:103780000421D3F8182402F00302D3F81834012AD4
:1037900031D04FF050230222C3F808231A4B1B6884
:1037A000012098474FF05023D3F8203173B14FF0E8
:1037B00050230022C3F82021D3F820214FF4807237
:1037C000C3F80823104B1B68042098474FF0502380
:1037D000D3F8243173B14FF050230022C3F82421D1
:1037E000D3F824214FF40072C3F80823064B1B685A
:1037F0000520984708BD4FF050230222C3F8182532
:1038000001229A60CEE700BF8427002010B54FF058
:103810002003EFF3118E83F31188BFF36F8F0E4BEC
:103820001C68E14316D0002301E00133DBB221FA2A
:1038300003F212F0010FF8D0012202FA03FC44EA6D
:103840000C04054A1460037004488EF31188BFF31A
:103850006F8F10BD0248F8E78C2700200000AD0BE9
:103860000200AD0B044BDA6D012383401A4214BFF2
:1038700001200020704700BF90270020012303FA99
:1038800000F0024AD36D0343D365704790270020B0
:10389000012303FA00F0034AD36D23EA0003D36542
:1038A000704700BF9027002038B5044602F09DFE07
:1038B00008B9094838BD4FF02003EFF3118583F3B1
:1038C0001188BFF36F8F2046FFF7E2FF85F3118861
:1038D000BFF36F8F0148EDE70400AD0B0000AD0BA7
:1038E0002DE9F84380460024FF25174F0DE086F3AD
:1038F0001188BFF36F8F154B9F4221D0012303FA2C
:1039000009F325EA03050134E4B2CDB14FF02003F9
:10391000EFF3118683F31188BFF36F8FA14625FA69
:1039200004F313F0010FE2D02046FFF79BFF0028BD
:10393000DDD12046FFF7A2FF88F80040034FD6E70D
:103940003846BDE8F88300BF0200AD0B0000AD0BA8
:10395000034B0022C3F88425C3F80425704700BF39
:1039600000900350034B0122C3F88425C3F80425BB
:10397000704700BF00900350034B0222C3F8842518
:10398000C3F80425704700BF00900350044BD3F8E0
:10399000003413F0010FF9D00160BFF35F8F70475F
:1039A0000090035010B5044602F036FE08B90848EE
:1039B00010BDFFF7E1FF4FF0FF332360054BD3F855
:1039C000003413F0010FF9D0FFF7C2FF0248EFE710
:1039D0000A00AD0B009003500000AD0B0268124BC3
:1039E0009A4215D1C269A3F11023A3F1EF139A42B1
:1039F00010D18368012B0FD8C36813B102699342B9
:103A00000CD0436963B1826993420BD000207047A8
:103A10000120704701207047012070470120704746
:103A2000002070470120704755AA00FF70B5114B68
:103A30009D68B5B12846FFF7D1FF064698B9EB68F7
:103A400013B10126304670BD2C69002CFAD02046F7
:103A5000FFF7C4FF48B9E368AB4208D125462469A3
:103A6000F3E70126EEE70126ECE70126EAE7012667
:103A7000E8E700BFF0270020002800F0928038B56A
:103A80000546484B1B68002B6CD0464A9268002ABA
:103A900068D0834204D8434A52681344834203D80F
:103AA000414B1B6801209847A5F120042046FFF7F1
:103AB00095FF18B13C4B1B680120984755F8183CFE
:103AC000012B03D0384B1B6801209847002345F891
:103AD000183C55F8143CCBB19A68002A43D155F8EC
:103AE0001C2C59680A4420325A6055F8143C55F889
:103AF000102C1A6155F8145C2B6903B1DD6020228B
:103B00000021204602F06BF923462C4625691DB39F
:103B1000AA680ABB6B6862681344203363602B6930
:103B2000236163690BB323B3A2699A61A3690BB1E3
:103B300062695A616B696361AA69A261EBB19C61B8
:103B4000A36903B15C61236903B1DC602022002119
:103B5000284602F044F92B4693B1124B1B6913F02F
:103B6000020F15D138BD0023D0E7A269002ADAD1AF
:103B7000E0E7A2690B4BDA60D8E70A4BDC60DFE7CD
:103B8000084BDB68A36103B15C61064BDC60E4E7D2
:103B9000FFF74CFF0028E5D0034B1B680120984736
:103BA000E0E77047F02700204800002070B54F4B39
:103BB000DC681D68002D58D09D68002D55D001FB94
:103BC00000F6002800F08880002900F08780B6FB0E
:103BD000F0F0884240F0848016F1040F00F28280F9
:103BE00016F0030F43D026F00305043500E0A46966
:103BF00014B16368AB42FAD3002C75D0A3681BB133
:103C00003B4B1B68012098476268521B232A30D91E
:103C100005F120016318203A5A6000229A60DC60A6
:103C200022691A61334860503349D96102B1D360C7
:103C300062695A61A1699961002A41D093619A69C8
:103C400002B153610122A2606560236100236361B8
:103C5000A361264B1B6913F0010F34D104F1200539
:103C600032460021284602F0BAF8284670BD354693
:103C7000BEE70123A3606369ABB1A2699A61A3693E
:103C80000BB162695A6100236361A361174B1B6921
:103C900013F0010F0BD104F1200532460021284614
:103CA00002F09DF8E1E7A269104BDA60E7E7FFF761
:103CB000BDFE0028EFD00E4B1B6801209847EAE7B5
:103CC0000A4AD360BBE7FFF7B1FE0028C6D0084B15
:103CD0001B6801209847C1E70025C6E70025C4E717
:103CE0000025C2E70025C0E72546BEE7F0270020F3
:103CF0004800002055AA00FF669911EE38B5054628
:103D00000C4614220021134802F069F812491348A6
:103D100000F038F8232C1CD915F0030304D01C4400
:103D2000043CC3F104031D4422460021284602F04E
:103D300056F8084B1D605C609D60203C6C609A6882
:103D4000074911609A68A1F11021A1F1EF11D16129
:103D5000DA6038BDF0270020793A0000AD3B000062
:103D600055AA00FF08B5024B1B68984708BD00BF65
:103D70004400002008B5024B1B68984708BD00BFEF
:103D80004C000020024B1860024B19600020704765
:103D9000440000204C00002031B108B50A46034B16
:103DA0001B680021984708BD704700BF50000020E5
:103DB000F8B504460D46476800F10806304603F0A2
:103DC00046F8874251D16368B3F5807F4FD8002110
:103DD000304603F0D1F900282ADD0021304603F0F7
:103DE0000EF828B3CDB104F12C060021304603F0C3
:103DF000C3F900281EDD0021304603F000F8C8B1E9
:103E000004F138060021304603F0B6F9002811DD30
:103E10000021304602F0F3FF60B1002104F11400EC
:103E200003F0AAF9002824DD35B9ADB92846F8BD5C
:103E3000124DFBE7114DF9E7002104F1440003F0B6
:103E40009BF9002806DD002104F1500003F094F9ED
:103E50000028EADC094DE9E7002104F15C0003F0E9
:103E60008BF9002807DD0025E0E7044DDEE7034D70
:103E7000DCE7024DDAE7014DD8E700BF80BFFFFF66
:103E800070B5044600221146FFF792FFE0B90646DE
:103E900004F10805284602F0C3FF7F2816D9143420
:103EA0000021204602F0ABFF60B1204602F0B8FFCF
:103EB000012807D92946204603F010F9002801DA25
:103EC000304670BD024EFBE7014EF9E7004EF7E7C2
:103ED00000BEFFFFF0B587B004460D46164600222F
:103EE0001146FFF765FF98BB03A802F0F6FE626873
:103EF000294603A802F0B1FF054630B103A802F03D
:103F0000F2FE15BB284607B0F0BD04F108052946AE
:103F100003A803F0E3F8002802DB6FF00305EDE7E8
:103F2000676804F1680300932B4604F1140203A9A7
:103F3000084603F090FC05460028DFD13A4631469A
:103F400003A802F0B9FF0546D8E7A5F58545D9E7EE
:103F5000004DD7E780BFFFFF0023036043600B469F
:103F6000B9B9194A8260194AC260194A0261194AEC
:103F70004261194A8261194AC261194A026202F118
:103F80007452A2F52302A2F6924242628366002096
:103F90007047144A8260144AC26002F1794202F505
:103FA000740202F501620261104A4261104A8261A4
:103FB00002F1D14202F5C01202F51E62C2610D4A41
:103FC00002620D4A4262E1E767E6096A85AE67BBB5
:103FD00072F36E3C3AF54FA57F520E518C68059BEB
:103FE000ABD9831FD89E05C107D57C3639590EF74A
:103FF000310BC0FFA78FF964A44FFABE2DE9F04F33
:10400000D3B0079000230446072B09D89A1C54F814
:10401000220003F1420208AD45F822000133F3E724
:10402000002211E011F8224001EB820043781B04CA
:1040300043EA0463847843EA0423C0780343901C72
:1040400008AC44F8203001320F2AEBD94FF0000CB5
:1040500078E1519B4E984FEAF02282EAB01282EA50
:1040600070621A445099DDF83CA181EA0A030340CA
:104070004B401A44DFF8DCE25EF82C301A440CF1B5
:10408000020908AB53F829301A4408924A9D4FEAB6
:10409000753383EAB50383EAB5534B9C2C404C9EA1
:1040A0004B9F2F4337403C43234409934D9C14447A
:1040B0004D941A4451924FEAF42383EAB41383EAED
:1040C0007463194480EA0A0323408AEA030319440B
:1040D0000CF101035EF8233019440CF1030808AB1E
:1040E00053F82830194408914FEA723383EAB20337
:1040F00083EAB253009305EA020745EA020B4B9BA1
:1041000003EA0B0B47EA0B07009B3B440993771824
:104110004C97194450914FEAF72383EAB71383EA87
:1041200077639A4480EA04033B4043409A445EF834
:10413000293053440CF1040908AE56F829904B4439
:1041400008934FEA713989EAB10989EAB15902EA5B
:10415000010A42EA010B05EA0B0B4AEA0B0AD144B9
:10416000CDF824904B9E1E444B964B444F934FEA00
:10417000F62989EAB61989EA7669484484EA070982
:1041800006EA090984EA090948445EF8288080445F
:104190000CF1050908A850F82900404408904FEA9E
:1041A000733888EAB30888EAB35801EA030A41EA97
:1041B000030B02EA0B0B4AEA0B0AD044CDF8248029
:1041C00005444A9540444E904FEAF52A8AEAB51ACA
:1041D0008AEA756A544487EA060A05EA0A0A87EAFF
:1041E0000A0A54440CF104085EF828A0A2440CF119
:1041F000060808AC54F82840544408944FEA703A32
:104200008AEAB00A8AEAB05ACDF800A003EA000AA6
:1042100043EA000B01EA0B0B4AEA0B0ADDF800B097
:10422000DA44CDF824A02244519254444D944FEAEC
:10423000F22A8AEAB21A8AEA726A574486EA050AB8
:1042400002EA0A0A86EA0A0A57445EF829904F44AD
:104250000CF107090DF1200A5AF829A057440897D4
:104260004FEA743A8AEAB40A8AEAB45ACDF800A04E
:1042700000EA040A40EA040B03EA0B0B4AEA0B0AC1
:10428000DDF800B0DA44CDF824A039445091574409
:104290004C974FEAF12A8AEAB11A8AEA716A5644BF
:1042A00085EA020A01EA0A0A85EA0A0A56445EF821
:1042B000288046440CF1080A0DF1200858F82A809D
:1042C000464408964FEA773888EAB70888EAB7582C
:1042D000CDF8008004EA070844EA070B00EA0B0B5C
:1042E00048EA0B08DDF800B0D844CDF82480334408
:1042F0004F9346444B964FEAF32888EAB31888EA6E
:1043000073684544514019404A402A445EF82930B8
:1043100013440CF1090C08AA52F82C2013440893FA
:104320004FEA763282EAB60282EAB65207EA06011C
:1043300037433C400C431444099418444E901C44A9
:104340004A94D446BCF10F0F7FF683AE4FF0100CA9
:104350008CE200BF24920000519C4E9A4FEAF22B4F
:104360008BEAB21B8BEA726B5C44509E4F9D86EACF
:10437000050B02EA0B0B86EA0B0BA344DFF89083D4
:1043800058F82C40A344ACF10203039308AB53F854
:104390002C404FEAF44383EA744383EA9423ACF15C
:1043A00007010291ACF1050108A850F8214023440F
:1043B000ACF10D0750F827104FEAB14484EAF1142C
:1043C00084EAD1042344ACF10E0150F821401C448E
:1043D0000CF1020ECDF804E040F82E405C44089445
:1043E0004A984FEA703383EAB00383EAB05EDDF89F
:1043F0002CA100EA0A01DDF8309140EA0A0B09EA33
:104400000B0B41EA0B0B0EEB0B0309934D99214467
:104410004D9104EB030BCDF844B14FEAF12484EA4B
:10442000B11484EA7164264482EA05030B406B40B0
:10443000F4180CF1010658F8263023440CF1FF342F
:104440000594049608AC54F826404FEAF44686EAF0
:10445000744686EA9426ACF10608CDF81880ACF1D3
:1044600004040DF1200E5EF824402644ACF10C0843
:104470005EF828E04FEABE4484EAFE1484EADE04D3
:10448000344408AE56F8276034440CF1030708AEF4
:1044900046F82740234408934FEA7B3686EABB065A
:1044A00086EABB5600EA0B0440EA0B0E0AEA0E0E3F
:1044B00044EA0E043444099409EB03064C96234461
:1044C000009350934FEAF62484EAB61484EA7664A3
:1044D000254482EA0104344054402C448C4DDDF8DC
:1044E00004E055F82E301C4408AB53F82E304FEA48
:1044F000F34585EA734585EA9325ACF103030DF195
:10450000200E5EF823301D44ACF10B0E08AB53F8BF
:104510002E904FEAB94383EAF91383EAD9032B4477
:1045200008AD55F828502B44DDF8049009F1020934
:1045300008AD45F829301C440894009B4FEA7338B5
:1045400088EAB30888EAB3580BEA03054BEA030389
:1045500003402B43434409930AEB04054B95234442
:104560004F934FEAF52484EAB51484EA756402EBAC
:10457000040881EA06022A404A4008EB0204644A21
:1045800052F82720224408AC54F827404FEAF44759
:1045900087EA744787EA9427039C0DF1200858F8AE
:1045A00024402744ACF10A0A58F82A804FEAB8445C
:1045B00084EAF81484EAD8043C4408AF57F82E7013
:1045C0003C440CF1050E08AF47F82E4022440892F7
:1045D0004FEA733787EAB30787EAB357DDF80080FD
:1045E00008EA030448EA03080BEA080844EA080456
:1045F0002744099710444A903A444E924FEAF024D7
:1046000084EAB01484EA7064214486EA0504044014
:1046100074400C440CF104013D4F57F821100C4438
:1046200008A951F829104FEAF14787EA714787EA4C
:10463000912705990DF1200858F821100F44ACF18D
:10464000090958F829804FEAB84181EAF81181EA4E
:10465000D801394408AF57F82A7039440CF10608DC
:10466000CDF80C8008AF47F82810214408914FEA94
:10467000723787EAB20787EAB25703EA020443EACD
:10468000020ADDF8008008EA0A0A44EA0A0427441C
:1046900009970BEB0104519439444D914FEAF427EB
:1046A00087EAB41787EA74673E4485EA0007274023
:1046B0006F403744164E56F82E60374408AE56F811
:1046C0002EE04FEAFE4686EA7E4686EA9E2E08AE39
:1046D00056F82C607644ACF1080A0DF1200E5EF815
:1046E0002AB04FEABB4E8EEAFB1E8EEADB0E764402
:1046F0000DF1200E5EF829E076440CF1070B0DF168
:10470000200E4EF82B60374408974FEA713601E0CF
:104710002492000086EAB10686EAB15602EA01094F
:1047200042EA010E03EA0E0E49EA0E0E764409969D
:1047300008EB070ECDF840E137444C974FEAFE26D0
:1047400086EABE1686EA7E66354480EA04060EEAEC
:10475000060646403544544EDDF80C8056F8286075
:104760002E4408AD55F828504FEAF54888EA7548B8
:1047700088EA9528049D0DF1200959F82550A84490
:10478000029D59F825904FEAB94585EAF91585EA61
:10479000D90545440DF1200858F82A8045440CF10C
:1047A000080A0DF1200848F82A502E4408964FEACE
:1047B000773888EAB70888EAB75801EA070541EA76
:1047C000070902EA090945EA090545440995334400
:1047D0004F932E444B964FEAF32989EAB31989EA9D
:1047E0007369484484EA0E0E03EA0E035C402044D9
:1047F0002D4B53F82B4000EB040908AB53F82B303A
:104800004FEAF34080EA734080EA9320DDF804E049
:1048100008AB53F82E301844DDF8188008AB53F875
:1048200028404FEAB44383EAF41383EAD4031844DC
:10483000029D08AB53F8253018440CF1090C08AB65
:1048400043F82C00484408904FEA763383EAB603D5
:1048500083EAB65307EA06053E433140294319442B
:10486000099102444E9201444A91D446BCF13F0F53
:104870007FF672AD00230798072B0CD803F1420294
:1048800008A951F82240991C50F82120224440F8F0
:1048900021200133F0E74FF4947108A8FFF77CFA68
:1048A000002053B0BDE8F08F2492000008B510221C
:1048B000034901F053FA08B1022008BD0120FCE7CA
:1048C0007C93000008B581681023044A103901F078
:1048D00038F800B908BD0120FCE700BF7C93000058
:1048E00030B585B002A9012003F002FC002854D1A4
:1048F0006946022003F0FCFB002850D1002407E0A9
:104900002B79042B29D09DF80A20934225D001341D
:10491000022C3BD804EB4403224A02EB43059DF8EA
:10492000081012F8130003F00CFB0028EFD09DF8DC
:104930000010687803F005FB0028E8D0AB78042B62
:1049400003D09DF80B209342E1D1EB78042BD7D014
:104950009DF803209342DAD1D2E76B79022B07D07E
:10496000032B11D0042B01D00F4A02E00F4A00E0C4
:104970000F4A49210F4800F055FF6879831EDBB2CA
:10498000022B08D9FF2006E00B4AF2E749210B4829
:1049900000F048FF012005B030BDFF20FBE7FF20FD
:1049A000F9E700BF8C9300003493000048930000A7
:1049B00024930000509300002C93000064930000A7
:1049C000034B00E01833034A9342FBD3704700BF08
:1049D000DC8100006C82000070B50646114B53F874
:1049E000204009E0404217E0EB681870EA6853780D
:1049F00043F0010353700834731C0A4A52F8233001
:104A0000A3420DD96568236828469847002DF2D047
:104A10000028EBD00028E5DBFF28E5DDFF20E3E7F9
:104A200070BD00BFA093000038B5054628B30378D9
:104A30002BB3144C00E01834134B9C4208D0204692
:104A400003F07DFB0028F6D02368AB42F3D112E0DF
:104A50000C4C00E018340C4B9C420BD0204603F069
:104A60006EFB0028F6D02168284601F06CF900287A
:104A7000F0D100E00024204638BD0446FBE70024C6
:104A8000F9E700BFDC8100006C82000004280CD82C
:104A9000DFE800F0030D05070900064870470648E7
:104AA00070470648704706487047064870470648F2
:104AB000704700BF04940000D8930000E893000002
:104AC000F4930000B4930000C493000030B108B523
:104AD00003F051FB20B1037823B108BD02487047B1
:104AE0000148FAE70048F8E71494000010B50446BE
:104AF0004521034800F096FE204603F02DFB00BF41
:104B00001C94000070B582B005460C464FF020039F
:104B1000EFF3118683F31188BFF36F8FFFF7B6FFB2
:104B20000346002200922A464521104800F07AFEF2
:104B30001CB1E369C3F3080393B90020FFF7C6FF74
:104B40000346002245210A4800F06CFE2146284613
:104B5000FFF7CCFF86F31188BFF36F8F02B070BDF3
:104B60004521044800F05EFEE7E700BF30940000F6
:104B7000889400006094000008B50348034A121AA4
:104B8000002101F02CF908BD580000200828002061
:104B900008B5094B01221A700220FFF71DFF00F033
:104BA0005FF80320FFF718FFFBF740FC034A137B75
:104BB00023F00103137308BD0628002058000020CD
:104BC00008B5174B03F5006282F3088883F30A885F
:104BD000144CE02384F822300025E57725766576AD
:104BE000A576636A43F4E0236362FDF7D3FCFDF727
:104BF0003FFA4FF0FF33A362E362FDF739FEFDF7A2
:104C0000F1FCFFF7DDFE2846FFF7E6FE0120FFF787
:104C1000E3FE2B462A4629460348FDF709FA00BF62
:104C20000850002000ED00E0914B000008B5064858
:104C3000064A121A064901F0A3F8064A064907482F
:104C400001F09EF808BD00BF0000002054000020C5
:104C5000F894000000000000F8940000000000201C
:104C600008B5034A0349044800F078FC08BD00BFBA
:104C7000A4940000AC940000D0940000704770B57C
:104C800082B0044601A90079FBF748FCA568019BA6
:104C90001D4423681C892E194FF02002EFF3118365
:104CA00082F31188BFF36F8F00F0AFFF2B5983F3AE
:104CB00008887368984702B070BD19B1012903D103
:104CC00002207047012070476FF0150070472DE9F2
:104CD000F0439DB015469946249FDDF89480279CAB
:104CE00001A803F03DF8002101A8FFF735F914B140
:104CF000289B002B06DC2B89EE6833446E891E440A
:104D0000002513E01A46214601A803F02FF8F2E728
:104D100023463A462946484600F0F5FD034688B941
:104D20002246394601A803F021F82544B54204D2B1
:104D3000741B4445ECD94446EAE7269901A803F0E0
:104D400058F8002318461DB0BDE8F0832DE9F04364
:104D500083B000284AD00C461746994606460029DB
:104D600047D0002A48D00D89CB681D4404230DEBA1
:104D700003022946384600F0C6FD804600283ED191
:104D8000BDF8042046F608139A421ED06389002B12
:104D90003BD1BDF8042046F607139A4238D134605F
:104DA0007760A6F808909DF82830B37263892B4489
:104DB000F36063892B44BDF8062013447361043506
:104DC0003561404603B0BDE8F0836389BDF8061045
:104DD0008B4217D104230DEB03022944384600F01F
:104DE00092FD0028D5D04FF0FF38EAE74FF0FF38AA
:104DF000E7E74FF0FF38E4E74FF0FF38E1E74FF027
:104E0000FF38DEE74FF0FF38DBE74FF0FF38D8E739
:104E10004FF0FF38D5E700284DD0F0B583B00F46EE
:104E200016461D4604460368002B48D043680BBB5A
:104E30004FF0FF313AE004230DEB03022169606873
:104E400000F061FD014600283CD1A37A1BB1226924
:104E5000E3689A4239D223894FF6FF72934217D002
:104E6000BDF80420934213D0BDF80600236918440E
:104E7000043020612069636998421AD223685B89F3
:104E8000002BD8D0E3688342D5D104302061D2E72B
:104E900015B1BDF804302B80236904333B60BDF8A5
:104EA000063033802269134404332361084603B07B
:104EB000F0BD0121FAE74FF0FF31084670474FF08F
:104EC000FF31F3E74FF0FF31F0E70121EEE72DE985
:104ED000F04184B004460E461546302303AA294605
:104EE000304601F030FCA8BB3368039A1344AB4250
:104EF00033D104F108073A462946304601F039FC1F
:104F000028BB04F1140842462946304601F031FC22
:104F1000E8B9384601F09BFF60603368AB421FD1AF
:104F2000CDF804800022009213463946204602F054
:104F300092FEC0B92046FEF7A3FF0546B0B9384639
:104F400001F085FF6060284604B0BDE8F0816FF095
:104F50000205F8E74FF0FF35F5E76FF00105F2E7DE
:104F60006FF00305EFE76FF00405ECE76FF0050560
:104F7000E9E7F0B5A5B006460F4600230893DF2405
:104F800007E025462A466946304600F0F9FE2E44E1
:104F9000641B002C1DDD09A802F0E2FE002109A817
:104FA000FEF7DAFF2022394609A802F0DFFE0422CC
:104FB00008A909A802F0DAFE694609A802F019FF5B
:104FC0009DF8233001338DF823301F2CD9DD2025A7
:104FD000D8E725B0F0BD08B500F0C0FE08BD00EB75
:104FE0004000C001704708B5FFF7F9FF303008BD39
:104FF0000B78013BDBB2012B02D84FF4C070704735
:105000004FF0FF30704710B5044600F0F9FCFFF791
:10501000EAFFA368181A10BD30B583B00C4601A989
:10502000FBF736FC054610B1284603B030BD0198A9
:1050300002F084FF04232246A0F10801019800F049
:1050400062FC0546019800F05DFCEDE708B581685B
:105050000122203902F0E7FF08BD10B582B00446F6
:10506000019102F06BFF04230DEB0302A0F1080194
:10507000204602F0A8FF02B010BD00207047036A6E
:105080005B781371036A5B6893601060704700205F
:10509000704708B5006A00F0B3FC08BD38B5054696
:1050A000002408E0C4F101032C2202FB0353186A18
:1050B00000F028FC0134012CF4D938BD2DE9F04171
:1050C00082B004460D4617460020FFF7F6FD01A901
:1050D000C0B2FCF723FD40B14FF00108019800F089
:1050E00011FC404602B0BDE8F0812C2303FB0543D0
:1050F0001E89DB681E4404236A463146019800F08D
:1051000002FC804640BB2C2101FB05446489BDF8AC
:10511000002046F608139A420CD004BBBDF80020CC
:1051200046F607139A421DD12644BDF802301E44AC
:105130003E60D3E7BDF802108C4202D04FF0030866
:10514000CCE704236A463144019800F0DCFB0028D8
:10515000E4D04FF00108C1E74FF00108BEE74FF07F
:105160000308BBE74FF00308B8E7F0B583B0054686
:105170000C460020FFF7A1FD01A9C0B2FCF7CEFC50
:10518000D0B90646019800F044FC0746019800F0AB
:10519000B9FB2C2101FB04510023032B05D8CA5C69
:1051A000974207D10133DBB2F7E701233BB1304629
:1051B00003B0F0BD0023F9E74FF0FF36F7E74FF0FB
:1051C000FF36F4E710B582B003460846802201920C
:1051D000012905D002290ED11A6D03F1540402E011
:1051E0005A6A03F1280401A9FCF7ACFC08B9019B39
:1051F000236002B010BD0120FBE738B50446012151
:10520000FFF7E0FF10B10125284638BD02212046F6
:10521000FFF7D8FF054608B10125F5E72046FFF75F
:1052200038FFE065F0E7F8B505460F46164600245E
:10523000012C10DC33462C2202FB04522146284666
:10524000FBF78AFE034608B90134F1E7002C03DDC1
:1052500017B9002300E000231846F8BD002383712E
:105260008360C3600123437103600371C37170479E
:105270004379012B01D0002070470368012B01D036
:10528000002070470379012B01D0002070470120D6
:10529000704738B50546FBF7D5FB95F85840E31E37
:1052A000DBB2012B0DD9022C03D0042C01D0032C2E
:1052B00006D1002000F0DDF810B1FF2385F858304A
:1052C00038BD002000F0E8F80028ECD0FF2485F875
:1052D0005840EAE770B584B004460E4603A90120A1
:1052E000FCF71CFC30B10124039800F00BFB2046B6
:1052F00004B070BD0398FFF786FE0546E16D3046A9
:1053000000F0EAF82C18039800F07AFB05460398A1
:1053100000F07FFB0146082201A800F060FD337910
:105320008DF804302B4601AA2146039800F009FBB2
:1053300004460028D8D00124D6E708B500F032FB97
:1053400008BD2DE9F04706460F4600210846FFF745
:10535000B4FC044601210020FFF7AFFC3B789C42DF
:1053600023D0984223D1012399462C2202FB0363C8
:105370009C6A013CF06DFFF736FE804600252C2329
:1053800003FB09635B6A03EBC402D2F804A053F881
:1053900034101B685246C91A3846FFF7CEFF013C4D
:1053A00055444545EBD3BDE8F0870023DCE70120F9
:1053B000F9E730B583B00C4615466946022002F085
:1053C00097FEE97901290DD19DF80330012B0ED00C
:1053D000A9682046FFF741FE2046FFF773FA002038
:1053E00003B030BD0022204602F097FEECE72046D5
:1053F00002F024FEECE770B582B005460E46FBF7DE
:10540000BFFE0446F06088B302282ED101A9012016
:10541000FCF784FB08B1012428E0324629460198B4
:10542000FBF7F6FD0446E0B9019802F087FD01465E
:1054300001230DF10302019800F065FA044608B15A
:10544000012413E001220DF10301019802F088FD0F
:1054500010B101238DF803309DF8033003F00F03E2
:10546000F371019800F04EFA00E00724204602B0E4
:1054700070BD10B582B001A90120FCF74FFB18B137
:105480000124204602B010BD0198FFF7DFFD04465D
:10549000019800F037FAF4E710B584B003A90120B1
:1054A000FCF73CFB18B10124204604B010BD01A953
:1054B000039802F0D0FD044660B99DF80730032B35
:1054C00003D0039800F01EFAEEE7039802F0B6FD51
:1054D0000446F6E70124F4E710B54279012A12D018
:1054E000022301FB03F3012A0FD04FEAC11E027908
:1054F000013A046804F1FF3C0CFB03F301FB0231A9
:1055000001EB0E0010BD0123EBE74FF0000EEEE7BC
:10551000024658B1436803F00303012B03D0032B69
:1055200007D1036843B10020906070476FF0150009
:1055300070476FF0150070476FF015007047034615
:10554000426802F003028160032A03D1006800224E
:105550005A6070470020FAE7002070470FB400B58A
:1055600083B004A951F8040B0191FBF743FF03B08A
:105570005DF804EB04B0704701F00703018B21F0E4
:1055800007011943018370472DE9F04106460F4694
:105590009046816819B10C4631B10C6804E00C46A4
:1055A00002E0234621461C4659B14D6843463A461F
:1055B0003046A847002CF4D02346002CF2D02368B4
:1055C000F0E7BDE8F081038B13F0070303D1026815
:1055D0000AB103207047022B03D0012B06D0002014
:1055E0007047428B002AF8D10420704703680BB142
:1055F000052070470020704710B504468C46038B89
:10560000002A07DB03F007035A1F012A0ED9042BD7
:1056100033D010BDD0E900018CE8030000232360E3
:10562000636001212046FFF7A7FFF2E7D0E9000100
:105630008CE80300002222606260062B18D1DCF89F
:1056400000303BB1628B01326283002BF9D01B68C2
:10565000002BF6D102212046FFF78EFF2046FFF7F0
:10566000B2FF0028D5D0238B43F020032383D0E75B
:1056700000212046FFF780FFF0E70021FFF77CFFC5
:105680002046FFF7A0FF0028C3D0238B43F0200360
:105690002383BEE758B110B50C4659B1081DFFF77A
:1056A00037FF18B9A36833F0030306D110BD6FF0BC
:1056B000150070476FF01500F8E76FF01500F5E77B
:1056C0002DE9F04107460C4616461D461946201D99
:1056D000FFF735FF28B180462B4632462146384633
:1056E000C047BDE8F0812DE9F04180460C461746E1
:1056F0001E4604E033463A464046FFF7E1FF216884
:1057000031B10D68256063688B42F3D16560F1E7C4
:10571000BDE8F08108B54FF0200CEFF311828CF357
:105720001188BFF36F8F41610121FBF773FE08BD44
:10573000034670B181B10A688AB14A6892B100200B
:10574000186058609860D860186158619861196154
:1057500070476FF0150070476FF0150070476FF0DD
:10576000150070476FF015007047F8B504460F46F6
:10577000FFF790FF061E37DB4FF02003EFF3118297
:1057800083F31188BFF36F8F258B05F00705638BBB
:105790004FF6FF718B422FD02E46022D0CD08DB1CB
:1057A000042D0FD0062D0DD0052D1FD06FF004064F
:1057B00000210B4608460AE00133638301210023E0
:1057C000184604E0B5FA85F35B090021012028B1F1
:1057D000002038606068A8B107606760ABB982F3E9
:1057E0001188BFF36F8FA9B93046F8BD6FF08506F9
:1057F00000210B460846EAE76FF00A0600210B4637
:105800000846E4E767602760E8E702212046FBF7E7
:1058100001FEE9E700232A4639462046FFF750FFFC
:10582000E2E770470FB400B583B004A951F8040B48
:105830000191FBF7DFFD03B05DF804EB04B07047A6
:1058400000684B6898420AD3D1F808C06344984274
:1058500008D208694B69984208D20020704701209D
:105860001070704700231370012070476FF00B0316
:105870008B61002313700120704770B582B005461C
:105880000C46CE680DF10702FFF7DAFF80B92B68EE
:10589000616822695B1A46F83230236906EBC30659
:1058A0006B687360236901332361012002B070BD0E
:1058B0009DF80700FAE7F8B50D4617461E46069C08
:1058C0002060FCF713F9B8B1436863608368A36094
:1058D000E760002222612B686361A261C068FFF764
:1058E000A3F860B12246314600F03BFBA3690BB937
:1058F00023692B60A069F8BD6FF01500FBE76FF01E
:105900001200F8E77047F8B5074616461D460C1E0C
:1059100005DBE318826893420ED9002300E00023E0
:1059200063B1F868FFF780F87968214483681C68E0
:105930002B463246A047F8BD0123F1E76FF0150072
:10594000F9E72DE9F843064690461F46B1F10009F4
:1059500005DB4B44826893421FD9002300E00023FB
:10596000EBB1F068FFF760F8044671688944866817
:10597000F3681BB100219847054658B975683B4646
:10598000424649462046A8470546F36813B101211F
:10599000204698472846BDE8F8830123E0E76FF0EA
:1059A0001505F7E72DE9F041054690460E1E05DB8B
:1059B000B318826893421ED9002300E00023E3B1AC
:1059C000E868FFF731F804466B681E448768FB6897
:1059D0001BB100219847054650B9BB684246314685
:1059E000204698470546FB6813B101212046984799
:1059F0002846BDE8F0810123E1E76FF01505F7E7E0
:105A000008B5C068FFF710F883681B6998470078ED
:105A100008BD08B5C068FFF707F883681B69984799
:105A2000007908BD006901EB41018900703108442B
:105A30007047406801EB410100EB8100704700694D
:105A4000C1EBC10100EB8100704708B5C9B2FFF797
:105A5000E9FF806800F0070008BD4FF02003EFF376
:105A6000118283F31188BFF36F8F036813F0C003B3
:105A700001D08B4207D101230360002082F31188FB
:105A8000BFF36F8F70474FF0FF30F7E74FF0200301
:105A9000EFF3118283F31188BFF36F8F036803F074
:105AA000C00C03F00703012B08D08C4509D04FF040
:105AB000FF3082F31188BFF36F8F704701600020C1
:105AC000F7E76FF07700F4E74FF02003EFF3118270
:105AD00083F31188BFF36F8F036803F0C00343F0B3
