:020000040000FA
:1000000098F90020BD450000A7A800001D4600008B
:100010001D4600001D4600001D4600001D46000054
:100020000000000000000000000000000944000083
:100030001D46000000000000B14300003FA6000084
:100040009545000095450000954500009545000048
:100050009545000095450000954500009545000038
:100060009545000095450000954500009545000028
:100070009545000095450000954500009545000018
:100080009545000095450000954500009545000008
:1000900095450000954500009545000095450000F8
:1000A00095450000954500009545000095450000E8
:1000B00095450000954500009545000095450000D8
:1000C00095450000954500009545000095450000C8
:1000D00095450000954500009545000095450000B8
:1000E00095450000954500009545000095450000A8
:1000F0009545000095450000954500009545000098
:100100009545000095450000954500009545000087
:100110009545000095450000954500009545000077
:100120009545000095450000954500009545000067
:100130009545000095450000954500009545000057
:100140009545000095450000954500009545000047
:100150009545000053B94AB9002908BF00281CBFC3
:100160004FF0FF314FF0FF3000F080B9ADF1080CD7
:100170006DE904CE00F006F8DDF804E0DDE90223C5
:1001800004B070472DE9F04F099E0D4604460F4616
:10019000002B47D18A4294465FD9B2FA82F343B129
:1001A000C3F120019F4002FA03FC9C4020FA01F1B8
:1001B0000F434FEA1C451FFA8CFE220CB7FBF5F1EA
:1001C00005FB117701FB0EF042EA0742904208D985
:1001D0001CEB020201F1FF3702D2904200F234819F
:1001E0003946121AA4B2B2FBF5F005FB102200FB4F
:1001F0000EFE44EA0244A64508D91CEB040400F1B3
:10020000FF3202D2A64500F21981104640EA0140B1
:10021000A4EB0E0400211EB1DC400023C6E900431C
:10022000BDE8F08F8B4208D9002E00F0FB80002142
:10023000C6E900050846BDE8F08FB3FA83F100294E
:100240004BD1AB42C0F0F180824240F2EE800846D2
:10025000002EE5D0C6E90047E2E702B9FFDEB2FAB8
:1002600082F3002B40F09D808D1A4FEA124E97B218
:100270000121B5FBFEF20EFB1250250C45EA0045AC
:1002800007FB02F0A8420FD91CEB050502F1FF386D
:100290002CBF4FF001094FF00009A84203D9B9F172
:1002A000000F00F0CE8042462D1AA4B2B5FBFEF03E
:1002B0000EFB105500FB07F744EA0544A74208D996
:1002C0001CEB040400F1FF3502D2A74200F2B38018
:1002D0002846E41B40EA02409DE7C1F120078B401D
:1002E00005FA01F422FA07FCFD408A404CEA030CAF
:1002F00020FA07F34FEA1C491C431FFA8CFE00FA50
:1003000001F3200CB5FBF9F809FB185540EA054547
:1003100008FB0EF0A8420FD91CEB050508F1FF3AC7
:100320002CBF4FF0010B4FF0000BA84203D9BBF1DB
:10033000000F00F08C80D0462D1AA4B2B5FBF9F066
:1003400009FB105500FB0EFE44EA0545AE4507D9F2
:100350001CEB050500F1FF3401D2AE457ED82046E6
:1003600040EA0840A5EB0E05A0FB029845454C4627
:10037000C64602D306D14B4504D20138B9EB02047C
:1003800068EB0C0E002E6FD01A1B65EB0E0522FADF
:1003900001F305FA07F7CD4000211F43C6E90075B8
:1003A0003EE702FA03FCC3F1200001FA03F24FEA30
:1003B0001C4EC14024FA00F51FFA8CF79C401543EF
:1003C000B1FBFEF02A0C0EFB101142EA014200FBC9
:1003D00007F191420ED91CEB020200F1FF382CBF4D
:1003E0004FF001094FF00009914202D9B9F1000F15
:1003F00031D04046521AADB2B2FBFEF10EFB1122D3
:1004000045EA024501FB07F2AA4207D91CEB0505A4
:1004100001F1FF3801D2AA4223D84146AD1A41EA80
:10042000004126E731463046FAE6841A65EB0303BD
:1004300001201F460CE7644402384AE7644402384E
:10044000E4E6023A65442FE702396244C9E6A8F1BE
:100450000208654470E702386244CBE7023865441D
:100460007EE702396544D9E73146D9E6704700BFD7
:100470007FB5384B384AC2F80036C2F80436C2F8A5
:100480000836C2F80C36C2F81036C2F81436C2F874
:100490001836C2F81C3602F58052C2F80036C2F88F
:1004A0000436C2F80836C2F80C36C2F81036C2F864
:1004B0001436C2F81836C2F81C3600F075F8274812
:1004C00000F054F800B9FEE7254807F02DFC04467B
:1004D00002698168136823F4005313600B684FF4BA
:1004E00088720D219847A36820465B6801A9984748
:1004F00038B9019B9B0404D403F00EFB194803F0A8
:1005000043FE01A800F0A2FC174B1B68834200D0F9
:10051000FEE705F0DDF869469DF8080008F09EFD4D
:10052000009B039C1C44019B1D8966194FF020020F
:10053000EFF3118382F31188BFF36F8F0AF080F815
:1005400001F0E2FA00F0F6FD635983F3088873685E
:100550009847FEE73546526E00800150EED8000005
:1005600001D9000048D400000407002010B5044C55
:10057000236813B907F0D8FB2060206810BD00BFC6
:10058000000700201FB5074A03460C4610681946AD
:1005900001AA0AF04DFC18B9019B2360029B63601D
:1005A00004B010BD000700204FF4C051014806F010
:1005B000B9BE00BFFA9F00202DE9F04FDFF8E8A197
:1005C000F9B038A8DDE9844817461D46DAF800601E
:1005D0000CF028F9002138A806F0B4FF3CB1B8F1BE
:1005E000000F04DD4246214638A80CF01FF94FF0F9
:1005F00000097B89B7F808809844FB689844C8458F
:100600004BD80DA938A80CF04EF9869B23B12022B7
:1006100018460DA90AF0B0F900232A46009339467E
:100620004FF6FF7307A808F029FD0446002840F0A4
:10063000B58080464FF0FF37DFF870910DF116035B
:1006400005AA06A907A808F065FD041EC0F2A68049
:1006500040F09780BDF816B0BBF1100F34D1BDF853
:100660001480B8F1200F40F0978043462846069941
:1006700038AA09F045FE0446002840F08F80424623
:1006800038A90DA808F091FD0446494B1B68834228
:1006900040F084804FF00108D0E7DDF80CB2A8EB01
:1006A00009039B4528BF9B4649465B462846829ADC
:1006B00009F026FE0446002870D15A46829938A8CF
:1006C0000CF0B4F8D9449AE7BBF1010F36D1BDF86C
:1006D0001430202B60D82846069938AA09F010FE5D
:1006E000044600285AD19DF814B0BBF1200F03D95D
:1006F0004FF0FF342746A1E7D9F800302D4F039380
:10070000039B9C42F4DA1DA80CF08CF800211DA874
:1007100006F018FF7A681DA8126857F8081B0CF03D
:1007200085F815A91DA80CF0BEF85A4638A915A8D9
:100730000AF0F9F80028DDD00134E1E7BBF1200F21
:100740007FF47CAF002F19DBD9F80030BB4215DDF8
:10075000BDF81430B3F5807F1ED12846069938AA1B
:1007600009F0CEFD0446C8B9FFB25946BDF81430B1
:10077000009738AA0DA800F01FF806464FF0FF3783
:100780005CE7B8F1000F0DD0094B1B68B34201D0F4
:10079000DAF80060344601E04FF0FF34204679B0CB
:1007A000BDE8F08F0124F9E70000002050D40000DC
:1007B0000407002054D400002DE9F04F9146002298
:1007C000ADF54B7D98466B4B07468A4627A81146E8
:1007D0009DF850631D680BF0E1FF674B8AAA53F840
:1007E000364003EBC6035B680294196802A80C4408
:1007F000302321460AF0BEFD68BB029B8A9A13444F
:100800009C4228D1214629AA02A80AF0C7FD10BBA4
:100810000DF1B00B5A46214602A80AF0BFFD06466C
:10082000C8B929A80BF0ADF8029B28909C4212D1C0
:1008300033463246CDE9006B29A927A80BF06AFFA1
:1008400048B927A806F01CFE28B929A80BF099F88A
:10085000804528900AD027A80BF0ABFF27A80BF003
:10086000A8FF28460DF54B7DBDE8F08FB8F5807FD9
:1008700002D04FF0FF35F1E7BAF1200FF9D1494628
:100880008AAA27A806F020FE04460028F1D19DF888
:100890002733BC2BEDD10DF5A478DF264546039018
:1008A0000CA80BF0BFFF00210CA806F04BFE202285
:1008B0000DF207310CA80BF0B9FF042203A90CA814
:1008C0000BF0B4FF04A90CA80BF0EDFF1F2ED4BF52
:1008D000B1464FF020099DF80F30404601334A469B
:1008E00004A9A6EB09068DF80F300AF045F8002E92
:1008F000C844D5DC28462A46DF238AAE117816F88C
:1009000001CB013B81EA0C0102F8011BF6D12B78E7
:1009100003F07F032B7010F8016B002EA9D1013476
:10092000BE2CF8D195F8BE30012BA2D10CA80BF04B
:1009300079FF31460CA806F005FE08220F490CA8E5
:100940000BF074FF394620220CA80BF06FFF202219
:100950000DF207210CA80BF069FF04A90CA80BF0FD
:10096000A2FF20220DF2073104A808F01EFC054664
:1009700081E700BF0000002054D4000008D9000027
:100980002DE9F041032386B00D466F460026DFF8BF
:100990006C80ADF8003017F8010B01A901F0A0FE42
:1009A0000446D8B901981023816802AA103909F0C9
:1009B000A7FC044628B1019809F0A1FC0EE001262D
:1009C000E9E71022414602A809F0ADFF50B10198B5
:1009D00009F095FC002EF2D04FF0FF34204606B00F
:1009E000BDE8F08101980AF06FFA0423A0F1080134
:1009F0002A46019809F084FC0446DCE79CD60000F6
:100A00002DE9F041344B88B0064600200C461D68A5
:100A100008F02AFB06A9C0B201F062FE00284CD102
:100A2000214608F021FB2C2507A9C0B205FB04656F
:100A300001F056FE002830D04FF02C0808FB04F8D7
:100A400006EB0807396911F0100131D14FF48073BA
:100A50000193224B2A4600930846CDE90311069BD9
:100A60000291FFF7A9FD05461D4B56F80820069890
:100A70009A420CD13A89FB68D1438B4207D8134480
:100A80008268934203D2174B1B68AB4212D084B1E9
:100A90000021826809F080FC1CE0079809F0B5FC91
:100AA0000746079809F02BFC6B1EEA1C9A4208D1F6
:100AB00064B90125069809F022FC284608B0BDE873
:100AC000F08113F8011FB942F0D0B5E7304606991E
:100AD00008F05EFC2546EDE700000020FABB002090
:100AE0003DB8F3960407002073B50D460021044677
:100AF0002846CDE9001108F00AFCF0B1124E236837
:100B0000B34203D1204601AA08F097FBE36AB3423F
:100B100004D16A460121204608F08FFBDDE900324E
:100B2000934288BF0193019BAB6020462946019AFE
:100B300000F00AFA002002B070BD05F10801FFF7CD
:100B40001FFFAB680193F0E73DB8F3962DE9F84F2E
:100B5000884691469A460026DFF88CB0234D244CF7
:100B60000B9B9E4201D300200FE00B9B40469F1B36
:100B7000B7F5806F28BF4FF480671B4A3B4606EBF2
:100B80000A0109F0BDFB10B10120BDE8F88F0A99F8
:100B90003B465A464846711809F0CFFB0028F3D16E
:100BA000144BC5F800463E44C5F80446C5F808464F
:100BB000C5F80C46C5F81046C5F81446C5F81846E1
:100BC000C5F81C46C3F80046C3F80446C3F80846F7
:100BD000C3F80C46C3F81046C3F81446C3F81846C9
:100BE000C3F81C46BCE700BFFAB7002000800150E4
:100BF0003546526E009001502DE9F04F8E4B044661
:100C0000602287B089460021D3F8008009F0DFFE1A
:100C100000218A4B08466362894B236508F024FA59
:100C200004F12001C0B201F05BFD0121002008F0B9
:100C30001BFA04F14C01C0B201F052FD05462046FA
:100C400008F03CFB024618B1012384F8583075E0E7
:100C50000146204608F0D9FA0028F5D1204608F0D0
:100C6000BEFC0028F0D002A808F048FB0146204650
:100C700008F0E2FB0028E7D102A808F048FB80F06A
:100C8000010102AA2046C9B208F0BFFA06460028B0
:100C9000DAD102A808F03BFB074640BB204602A978
:100CA000FFF722FF9DF80F3084F85830033B012BEB
:100CB00006D8384608F00EFC10B1FF2384F85830EF
:100CC0009DF80F30023B022B06D8002008F0F0FB05
:100CD00010B1FF2384F8583094F85830FF2B00D11E
:100CE000FEE70021204602AA08F08FFAACE79DF843
:100CF0000F30012B41D1E36C524AD3F804A00020FD
:100D0000DAF800100193914209BFBAF808B0B3466F
:100D1000D344DBF8046004F041FD821E022A07463A
:100D20000AD801212046FFF76BFE474A126890421D
:100D300011D001281FD0052784F8587094F8583036
:100D4000042B8DF80F3024D8012B28D83FD0FF2357
:100D500084F858303BE0B6F1807FEDD95846DAF898
:100D60000C1004F081FC0028E5D12046019908F020
:100D70000FFB0127E0E70746DEE701212046FFF7EA
:100D80003FFE314B1B68984214BF05239DF80F307E
:100D90005BE7052BDBD1002008F09CFB12E020462E
:100DA00002A9FFF7A1FE94F858300546DA1E012A81
:100DB0000BD8002008F08EFB05460028C7D1002084
:100DC00008F076FB054610B1C1E7022BF7D094F886
:100DD0005830FF2B00D1FEE7012B06D00021204622
:100DE00002AA08F012FA0546C0B900212046FFF712
:100DF00007FE8046144E336883420FD11022002133
:100E000002A809F0E4FD236AD6F800805A7889F830
:100E100004205B68C9F80040C9F80830E06C09F0AC
:100E20006EFA206A09F06BFA002D14BF284640467E
:100E300007B0BDE8F08F00BF000000206807002069
:100E4000684700203DB8F3960407002008B5014626
:100E50000148FFF7D1FE08BD0807002073B516460C
:100E60001C4633B3436A5D686379012B15D101BB1E
:100E70001F4B22681B689A4298BF0025002008F08B
:100E8000F3F801A9C0B201F02BFCF0B101250198E3
:100E900009F035FA284602B070BD022B09D123684B
:100EA000012B08D9124A1268934202D8B1FA81F193
:100EB00049090025E2E7FCD10029DFD00129F8D15A
:100EC0002179023918BF0121F3E729462023324650
:100ED000019809F015FA05460028D7D1002CD6D084
:100EE000356804482D1A18BF4FF0FF35CFE700BF13
:100EF000040000203DB8F39673B5064618464B68CB
:100F00001446104A03F0FF2393420D4617D10B6895
:100F1000012B14D169460AF04BF89DF80030032BE1
:100F20000DD12146304608F033FA20460AF037F852
:100F30002046A96808F05AF9204604F0D1FB02B017
:100F400070BD00BF00010004436A2DE9F04F0C465C
:100F50005E6805460121002389B033449342084668
:100F600001F10101F9D3714B1860204608F0CFF967
:100F700098B1E86D08F01BF90022AB6A013B3244DE
:100F8000904201D9013BFAE7684A12689A4204D3B9
:100F90000123E37109B0BDE8F08F06A9032001F039
:100FA0009FFB07A9012001F09BFB01232146284656
:100FB000079AFFF7A1FF6379012B08D15B4BDFF89C
:100FC00070B11F68594B1B68A7B9012323604FF00C
:100FD00002030127DFF858816371544BDDF8189044
:100FE0001B68BB424AD2484609F089F9079809F0C4
:100FF00086F9CFE7226801339B1ABB423CD36B6A68
:10100000012A196853F8370003EBC70353F8083C6B
:10101000DDF81880A0EB0109A3EB010A12D1E26808
:10102000079B022A0AD041462846039308F0B0F9EC
:1010300022464146284608F0E0F9039B1946284617
:1010400008F0A6F932464946404608F09FF9534653
:10105000424641462846CDE90096FFF777FD2146F6
:10106000284608F061F923680133236020B1DBF8DA
:1010700000300133CBF80030013FA3E72368BB42C7
:1010800051D86A6AFB0052F83710083B0491116886
:10109000DDF81CA00391296DC8580968A0EB010B6D
:1010A000217901293DD1D158039B3246C91A4846BE
:1010B000059108F06BF905995B464A460091284670
:1010C00051460196FFF742FD2146284608F02CF9CB
:1010D0004FF00203237120B1D8F800300133C8F873
:1010E000003032465946504608F050F9DDE90323F6
:1010F00049469B1A28465246CDE900B6FFF726FD21
:101100002146284608F010F92368013323604FF088
:101110000103237138B1D8F800300133C8F800302A
:1011200001E00229DDD0013757E700BF04000020AD
:10113000688700204FF0FF3301210F4A5160C2F849
:101140004833C2F8083302F5805251600021C2F8DA
:101150004833C2F80833A2F55042C2F80015C2F86D
:10116000083302F58052C2F80015C2F808334FF078
:101170005022C2F808337047004001502DE9F04377
:101180000546079810B91060BDE8F0830324B0FB52
:10119000F4F404EB4407B84218BF0134B4F1804FB3
:1011A00005D34FF0FF3313606FF00B00ECE7A400A2
:1011B00001348C4200D80DB91460F5E72E460024A6
:1011C000DFF8B4E0BC4231469C4606F1040603F168
:1011D000030329D3844222D20134844228BF00234E
:1011E0009CF80060244F38BF9CF801304FEAA60CF1
:1011F00017F80CC0844281F800C007EB131C2FBF06
:101200003D239B0003F03C03FB5C36018B703D23C8
:1012100006F030061CF80660CB704E7004310020DA
:101220004D1B15600870AFE713F803CC13F8021CD0
:101230004FEAAC091EF809904FEA0C1C13F8018C18
:101240000CF0300C06F8049C0EEB111919F80CC0C8
:10125000890006F803CC01F03C010EEB981C1CF849
:10126000011008F03F0806F8021C1EF808100334AD
:1012700006F8011CA6E700BF9EDA00008C4600219C
:101280002DE9F04307460D460846079EDFF8188112
:10129000B5420AD32E4604E00135AE420EF1010EEE
:1012A00005D190BB1060BDE8F0834FF0000E5C5D8F
:1012B000202CF1D0AE42F4D0A6EB0509B9F1010F14
:1012C00013D00D2C11D103EB050999F80190B9F158
:1012D0000A0F18D0BEF1000F04D13D2C07D1013107
:1012E000022907D96FF01500DDE70A2CF1E714F0A9
:1012F000800FF7D118F804407F2CF3D03F2C01D891
:101300000029EFD101300135C2E74FF0060E00F0A1
:101310000705C4080EFB05F50EFB04F40735641A37
:1013200004EBD5048FB164450FD800249C461E44BD
:1013300003203B462146DFF870E0DFF87080664509
:1013400007D1DB1B00201360ADE76FF00B001460CA
:10135000A9E71CF8019BA9F10A05EDB2162D03D8E7
:1013600028FA05F5ED07EAD41EF809500131402DA1
:1013700008BF013805F03F05042945EA8414DED191
:1013800078B1210C0128197002D101330021D6E770
:1013900002284FEA1421597016BF9C7002330333A0
:1013A000F4E70146CBE700BF1EDA00000900400069
:1013B0002DE9F84FB0F81890044619F00808934644
:1013C0000DD001290CBF49F0100949F02009A0F8FF
:1013D00018908BF31188BFF36F8FBDE8F88F09F079
:1013E0000709022907D1204608F0A2F90028F0D009
:1013F0000128238B4ED16769218B002F15DA2568D0
:1014000021F00701C4E9008841F001012183002691
:10141000218B01F0070ACA4502D0A368002B5AD1DC
:101420000DB9002E71D0002356E001F007035A1FBA
:10143000012A1ED821F00701062B256889B2C4E9CC
:1014400000880AD13DB12A46638B126801339BB2F2
:10145000002AFAD1638341F002012046218308F07B
:1014600067F906460028D3D0238B43F0200323835B
:10147000CDE7042B0CD121F0070189B2204621834E
:1014800008F056F905460028C1D041F0200121831B
:101490000025BCE7032809D1226923F00703166859
:1014A00043F00603002523832F46B1E7042806D125
:1014B000226923F00703566843F00403F2E7052886
:1014C00006D1226923F00703966843F00503E9E794
:1014D00000252E46E8E7012341F0080121838BF324
:1014E0001188BFF36F8FFBB985BB16B120461F492A
:1014F000B0474FF02003EFF3118B83F31188BFF354
:101500006F8F238B23F008032383238BDA0625D5E3
:10151000012123F010032383B4F8189009F0070980
:1015200000297FF45EAF54E7A1680029DCD0D1F830
:1015300000903B4652462046D1F804B0D847B9F156
:10154000000FD1D04946D9F80090F2E729463B4632
:10155000524620462D6808F007F9C5E713F0200130
:101560001EBF23F0200302212383D5E795970000B7
:10157000054B03EB8000D0F8003223F0E04343F04A
:101580004053C0F8003270470025845010B54FF02A
:101590002003EFF3118483F31188BFF36F8F0122CF
:1015A0000C4B0D49C3F8002502230020C1F8D036AA
:1015B000FFF7DEFF1046FFF7DBFFC1F80427C1F895
:1015C0000429C1F8002B84F31188BFF36F8F00202A
:1015D00010BD00BF001000500040005048B1054B46
:1015E0001A68054BB2FBF3F2044B504343F001037E
:1015F000184770475001002040420F0040D40000BF
:10160000F0B5104B104C114D1B1B9B106B43104D34
:10161000D5F824C000259D4202D16FF08500F0BDB1
:10162000676867450AD3266946B197F802E00779EB
:10163000BE4503D13346BDE8F04018470135243498
:10164000E9E700BF3C04002018040020398EE3388D
:101650006C8700202DE9F041124B134C134D1B1BDE
:101660009B106B43124DD5F824C000259D4203D139
:101670006FF08500BDE8F081666866450ED3A76906
:1016800067B196F8028090F804E0F04503D13B463C
:10169000BDE8F04118477679012EF8D001352434A1
:1016A000E4E700BF3C04002018040020398EE33832
:1016B0006C8700202DE9F84306460F4690464FF010
:1016C00000090C4D0C4C0D4B641BA4105C434C45A5
:1016D00002D16FF085000BE06B691BB909F10109BC
:1016E0002435F4E742463946304698470028F5D17C
:1016F000BDE8F883180400203C040020398EE3384C
:1017000007B583788DF800300379427943EA0223E4
:10171000ADF80230C378684603F003038DF8043057
:1017200001F092FD10F1780F04D018B1002003B041
:101730005DF804FB9DF8000001F00CFE10F1780F3D
:1017400001D00028F2D10120014B83F8B900EEE767
:101750006C87002008B509480378C3F341130A33A6
:1017600050F823303BB100F1080200F11001984716
:10177000C043C00F08BD1846FCE700BF6C870020BF
:101780002DE9F14F254D264C264B641BA4105C43DC
:10179000031F012B06460F4625D8DFF88C9099F8D9
:1017A000B93003B300F094FD042E1CD14FF00008B3
:1017B000444515D04FF0000AD5F820B02A7F5FFAD3
:1017C0008AF39A4203D808F101082435F0E70BEBBD
:1017D000C303187901F0E8FD00280AF1010AEDDAE7
:1017E000002389F8B9304FF000080C4DA04508D10E
:1017F0000D4B1B6A7BB13946304601B0BDE8F04F56
:101800001847EB681BB13A4631462846984708F11D
:1018100001082435EAE701B0BDE8F08F1804002084
:101820003C040020398EE3386C8700202DE9F04F0E
:10183000A94D0646AB690C46904685B063B933782E
:1018400003F01F03012B00F08880022B00F0D180F1
:1018500043B16FF0150002E098470028EFD105B0C2
:10186000BDE8F08F72787088D8F80030092AF0D877
:1018700001A151F822F000BFA11800005318000088
:10188000531800005318000053180000AD18000052
:10189000B718000053180000E5180000EF1800000A
:1018A0000020012258701A7002236FE0C0B201F0CC
:1018B000B9FC0020D3E7020A131F012BC9D9072A5C
:1018C000C7D800216B6AC0B21D78002DC1D05E78E8
:1018D000964203D1884200F0F68001312B44F3E7B1
:1018E0001B78F6E095F8BA201A700123F1E0C7B230
:1018F0008DF80F7077B14FF0FF080026C1466C6A73
:10190000237853B9EB691BB103200DF10F01984700
:10191000002E9ED085F8BA70CBE76378042B0DD0EB
:10192000052B0ED0022B06D194F805809DF80F30C0
:10193000434508BF012623781C44E1E794F803904F
:10194000F9E79DF80F304345F5D1B9F1000FF2D119
:101950002046FFF7D5FE0646EDE795F8BA30002B96
:101960003FF477AF6F6A96F804903B4619780029E8
:101970003FF46FAF5A78022A03D11879484500F234
:10198000B3800B44F2E7002018700123236066E760
:1019900096F802B0FF264FF00008B2463B783BB9FC
:1019A000EB6913B14146072098470020206056E7B5
:1019B0007B78042B04D0052B0BD03B781F44EDE73C
:1019C000BE7897F803A0B145F7D1D34508BFB84614
:1019D000F3E7B145F1D1D34507D0B878019000F0D5
:1019E00059FC019801F0E0FCE7E73846FFF788FE74
:1019F000E3E73079D8F8007030F0800C8DF80F00F4
:101A00001ED04FF0000E354A354B36499B1A9B10BD
:101A10004B4373453FF41DAF4FF00008116A92F835
:101A20001C9004395FFA88FACA4503D30EF1010EFF
:101A30002432EEE708F1010811F838A08245F1D10F
:101A40007378012B12D0032B27D0002B7FF401AF2A
:101A5000BCF1000F04D095F8BA30002B3FF4F9AE7A
:101A6000394601F05BFC002078701DE77388002B7D
:101A70007FF4EFAEBCF1000F04D095F8BA30002B24
:101A80003FF4E7AE01F02AFCEB69002B3FF411AF05
:101A900009200DF10F0198470BE77388002B7FF4A5
:101AA000D8AEBCF1000F04D095F8BA30002B3FF44B
:101AB000D0AE01F0EBFBEB69002B3FF4FAAE08204F
:101AC0000DF10F01E7E7022AC8F800307FF408AFF4
:101AD0005B882360EDE600BF6C87002018040020BF
:101AE0003C040020398EE3387078D8F800300A289A
:101AF0003FF449AF0B283FF44BAF00287FF4A9AE69
:101B0000187058702260AAE610B5064C94F8B80018
:101B100030B101F03BFB0028A4BF002084F8B800DE
:101B200010BD00BF6C87002037B5134C0546237DE0
:101B3000BBB9E268A16801AB8020019208F090FA7D
:101B40000199A268E3680A445B1AA260E36033B9B2
:101B500023699D4203DD9B0601D10123237503B058
:101B600030BD002380201A461946237503B0BDE816
:101B7000304001F03FBC00BF6C8700200B460021C5
:101B800030B585B00246019100285ED1002B3AD1D4
:101B900008220DEB020108F00EFD002804DA802077
:101BA00001F074FB05B030BD2D4C9DF809309DF857
:101BB00008206370BDF80A3022706380BDF80C30D5
:101BC000A380BDF80E30802BE38006D9D10904D163
:101BD000802001F05BFB0020E2E722492361C4E999
:101BE0000213002121750BB1D309DBD0FFF7B2FD41
:101BF0000028D4D0E08823698342D4BFE360E0604A
:101C0000FFF792FFCEE7164C01ABD4E90215002D89
:101C100004DC08F0D0FC0028C4DAC0E72A4608F04B
:101C2000CAFC0028D4DB0199A268E3680A445B1A65
:101C3000A260E360002BB5D104F13803A360FFF785
:101C400089FD0028ABD0E088DAE78028AAD1044BD0
:101C5000DA6812B91A7D002AA4D0D888D0E700BF6C
:101C60006C870020A4870020054B064A58629A62C0
:101C7000054A0020DA62054A1A63054A9A617047EC
:101C80006C8700202D18000001160000B51600001A
:101C900055160000074B10B593F8B84024B900F072
:101CA000AFF918B1FFF7E0FF002010BD4FF0FF3093
:101CB000FBE700BF6C8700202DE9F7430446384D51
:101CC0004FF0FF324FF0FF33364806F009FA95F82F
:101CD000B860002E41D134482C62E86101F0A0FCCC
:101CE00001F014FA041E39DB00F01AFB041E35DB88
:101CF00040236846ADF802308DF804608DF800602E
:101D000001F0A2FA041E29DB802768468DF80070D6
:101D100001F09AFA041E21DB3046244901F06CFCE4
:101D2000041E1BDB3846214901F066FC041E15DB4E
:101D30001F4F204C204BE41BA4105C43B44214D131
:101D4000002001F007FB041E08DB802001F002FBED
:101D5000041E03DB012385F8B8300024114806F087
:101D600031FA204603B0BDE8F0834FF00008D7F801
:101D700020903A7F5FFA88F39A4202D801362437DE
:101D8000DCE709EBC30259F83310107901F034FC99
:101D900008F101080028ECD04FF0FF34DEE700BF67
:101DA0006C87002010030020811700007D1B0000BD
:101DB000180400203C040020398EE33830B51C4B59
:101DC00089B003AA03F1100514461868596808334E
:101DD00003C4AB422246F7D11B78082223700021AE
:101DE00001A808F0F4FD12220021124808F0EFFDCE
:101DF000082101A808F0EEFB002816DD00200D499F
:101E000001AA12F8013B08AC04EB131414F8144CAB
:101E100003F00F030C7008AC234413F8143C01309A
:101E200008284B7001F10201EBD1024809B030BD26
:101E3000DEDA0000FABC00202DE9F04F04466B4AC0
:101E40006B4B87B09B1A6B4A9B1053430193002541
:101E50004FF0011BA9462E46AA46207820B9664BB2
:101E600002349C4217D0F2E76378052B05D8DFE8EF
:101E700003F082040382072AA24623781C44ECE77D
:101E8000E378002BF9D1A37893B9584A0199994284
:101E900004D14FF0FF3007B0BDE8F08F5168243215
:101EA0008C420AD12426514A06FB0326B36833B973
:101EB00009F101095FFA89F9DFE70133E6E74946ED
:101EC00020469847F4E7002EE3D000230121327F1B
:101ED0009342DED2326AA77802EBC30210798742BE
:101EE00001D00133F3E70127E07894F805C000F052
:101EF00003008DF8140020795FFA87F840EA0C207F
:101F0000ADF8120094F90200002828DA07F1100059
:101F100001FA00F010EA0B0F29D168F07F008DF86C
:101F2000100004A8CDE9023208F02DFBDDE90232F1
:101F30000121E0B99DF8103013F0800FA3701371E8
:101F40000B461DBF08F110085FFA88F801FA08F87F
:101F5000BB4014BF4BEA080B4BEA030B8DE701FAB9
:101F600007F010EA0B0F02D18DF81080D9E7013786
:101F7000102FB9D1B5E7032D1DD1FFF71FFF07467D
:101F800068B108F0BDFC804648B11C4808F0B8FCB8
:101F9000804504D142463946A01C08F0EDFC6FF0A4
:101FA00002012378091BE21804EB5303D14213D535
:101FB0000135EDB261E7002DF1D1BAF1000F3FF428
:101FC00068AFA4EB0A038AF80230C3F307238AF848
:101FD00003308AF80490EBE74FF0000002F8010CA0
:101FE00013F8010902F8020DE0E700BF1804002011
:101FF0003C040020398EE33815040020DEDA0000AE
:1020000008B50448FFF718FF0028024818BF002051
:1020100008BD00BF34030020094B00211A4610B54B
:102020001C78844204D15C6814B102EB811010BDAD
:102030000131042903F14003F2D10020F7E700BF8A
:10204000288800202DE9F34150F8283C044610333D
:1020500010F82C6C10D1036950F8202C99073CD54E
:1020600002BB13F0040304D11A461946304607F0A8
:10207000F7FF002344F8283C54F8283C10330ED0D6
:1020800054F8185C5DB154F81C7C54F8148C0AF0B8
:10209000BFFD00284CD021462D480AF07DFE02B03D
:1020A000BDE8F08150F8241C01AB304607F0D8FFA2
:1020B00010B16FF01503DDE7019A54F8243C134486
:1020C00044F8243C54F8203C9B1A44F8203C54F833
:1020D0001C3C134444F81C3CCEE750F8241C01ABD4
:1020E000304601F0FFF90028E3D1019D54F8243C6B
:1020F0002B4444F8243C54F8203C5B1B44F8203C1F
:1021000054F81C3C2B4444F81C3C002DB1D0304604
:1021100001F08CFAB5FBF0F303FB1055002DA8D1AC
:1021200054F8203C002BA4D0304601F023FAA3E75A
:1021300044F8180CA4F1100006F0BAF854F8283C42
:102140008C33ACD0424639463046A847A7E700BF9B
:10215000400400204B1E012B73B506460D460FD8D8
:10216000FFF75AFF044668B9012D09D101AB0122DE
:1021700030460DF1030101F0B5F9019B002BF5D1BB
:1021800002B070BD0AF044FD04F12C0108B1012D2C
:1021900005D1084602B0BDE87040FFF753BF0348C1
:1021A00002B0BDE870400AF0F7BD00BF4004002057
:1021B0002DE9F74F064615469846019107F0A2FF14
:1021C000044600285CD14FF02003EFF3118A83F31B
:1021D0001188BFF36F8FDFF8B0B0A7010022002392
:1021E000584606F085F868B9DFF8A09009EB0704B7
:1021F000636813F1100F14D10193584606F058F894
:10220000019B06E00134042C0BF1400BE5D16FF08B
:102210000B038AF31188BFF36F8F184603B0BDE834
:10222000F08F019B2061C4E902350C9B304663614D
:102230000D9BC4F83C80A3616FF00F03636009F845
:10224000076001F0F3F958B1304601F0EFF9B5FB42
:10225000F0F202FB10551DB1E36B43F00403E3639E
:1022600018F0020F07D02C37094809EB07010AF0D4
:1022700093FD0023CDE7304601F07CF90346C8E723
:102280006FF00F03C9E700BF4488002028880020B2
:102290004004002010B54FF02003EFF3118483F3C6
:1022A0001188BFF36F8FFFF7B7FE50B1436810334B
:1022B00007D16FF08B0300F12C01436003480AF053
:1022C0006BFD84F31188BFF36F8F10BD40040020B5
:1022D0002DE9F04104256FF08B070F4CDFF83C80AF
:1022E0004FF02003EFF3118683F31188BFF36F8F54
:1022F0006368103305D1404604F12C0167600AF091
:102300004BFD86F31188BFF36F8F013D04F140044C
:10231000E6D1BDE8F08100BF2888002040040020FD
:1023200070B50025094C0A4E314620460AF02BFDB7
:102330000122A4F11000114601350AF006FD042D1A
:1023400004F14004F0D1002070BD00BF548800208B
:102350004520000070B504460E4601791048154628
:1023600007F0A5FEB0B16378212B0ED0222B08D048
:10237000202B12D1072229680C3808F0FDFA002022
:1023800070BD638800F8053CF9E707230C38286026
:102390003360F4E76FF01200F2E76FF01500EFE73B
:1023A0002C890020014608B5034807F091FE10B1C2
:1023B000012300F8033C08BD2C890020012301699A
:1023C00081F83B300B6833B191F839301BB10248CA
:1023D00018310AF0E1BC7047400400200123016974
:1023E00081F83A300B6833B191F838301BB10248AC
:1023F00018310AF0D1BC70474004002038B5056997
:1024000095F88E0078B195F88F306BB985F8383033
:10241000D5F8800007F085FD044605F12801034842
:102420000AF0BAFC204638BD0020FCE7400400203A
:10243000012310B5144682F8383002F1080005F087
:1024400037FF23683BB194F83A3023B1094804F1CF
:1024500018010AF0A1FCD4F88030D3E900239A4295
:1024600006D004F128010348BDE810400AF094BCEE
:1024700010BD00BF4004002073B5144602F13C06B5
:102480000A1E054603DD3146E06F07F04AFD0123D1
:1024900084F8393023683BB194F83B3023B10848C5
:1024A00004F118010AF078FC064B402200933146F3
:1024B000012328460194FFF77BFE02B070BD00BFE8
:1024C00040040020792400007FB5836E05465B68D8
:1024D0001B6A1E7D304607F015FED0B94FF48062AE
:1024E000A86D03A907F03CFD044690B18306A5F151
:1024F00028030193084B08BF00F1FF3403990093B0
:10250000224602233046FFF753FE2146A86D07F00E
:1025100043FD04B070BD00BF31240000002310B59E
:102520000469C4F894300F4BC4F89000596804F162
:102530009402A1B9C3E900224FF0FF32002104F157
:1025400008000AF002FC04F1180007490AF01BFC1D
:1025500004F1280005490AF016FC002010BD0A60AD
:102560005A60E9E72C8900202BA10000C924000053
:10257000A12330B585B08DF8043020238DF80530C7
:10258000002342680569022085F88D30ADF80A0005
:10259000106AADF80C10ADF808300A22007901A9D4
:1025A000ADF8063007F05CFD054C95F88D3023B989
:1025B00001200AF00BFD013CF7D105B030BD00BF92
:1025C000A186010010B50446083005F071FE002117
:1025D0000B4BA4F88E1018689A889B79C4F8840075
:1025E000A4F88820218784F88A3084F88C1084F835
:1025F0008B1004F13C004022BDE8104008F0E7B920
:1026000030D4000038B50D4601461C4807F040FDA7
:102610000446B8B1024652F89039691E5B68052934
:1026200010D8DFE801F0100F0310151914F8021C80
:1026300019B91B6A187BFFF71FFF012304F8023C3E
:1026400004F8583C38BD1046BDE83840FFF7BABF23
:10265000012304F8013CF5E714F8011C0029F1D02E
:10266000002114F8020C04F8011C0028EAD01B6AAF
:10267000187BBDE83840FFF7FFBE00BF2C89002063
:1026800037B50024084D4FF0FF334FF480622846E1
:102690000649009405F034FF054928460AF0BEFAC1
:1026A000204603B030BD00BF4004002098C9002080
:1026B000F9DA0000084B30B51C68084B01461A686F
:1026C00000239C4201DC002030BD1046057810320A
:1026D0008D42F9D00133F4E77CD50000F0000020F2
:1026E000084B10B51B680C462BB1FFF7E3FF28B170
:1026F0002060002010BD6FF00C00FBE76FF00100C0
:10270000F8E700BFF000002030B589B00C46154650
:102710000190FFF7CFFFB8B1436822680293836846
:10272000C068CDE903350023CDE90623059307F002
:10273000C6FD60B1074901AA08F07EFB079808B9F9
:10274000059B236009B030BD6FF01500FAE76FF00C
:102750001200F7E7C3A20000084B70B5C31A0D467C
:1027600007499B10044659434022064807F072FE71
:102770002B4601462046BDE8704018474889002096
:10278000B76DDBB6CC010020402373B50B4C009332
:10279000041B0B460D460A49A41061430646094A2C
:1027A000094807F083FE011E05DA30462B4602B0C9
:1027B000BDE87040184702B070BD00BF48890020D6
:1027C000B76DDBB61DA50000CC0100202DE9F84354
:1027D000002201210646052001F058FE052001F0E7
:1027E00023FE114803F0D2F8104B984219D103F0A0
:1027F000DDF800244FF01C080C27DFF83490356911
:10280000494608FB045006F0E2FF002807DB0123DD
:1028100007FB04551C44042CAB67F0D10020BDE835
:10282000F8836FF00400FAE7692800000000AD0BA0
:10283000E8D4000001460C2300224B43084870B541
:10284000C4187833D4E91C561844226707F0EFFD0A
:102850002DB132462B46BDE870400248184770BD86
:1028600048890020CC010020052811D8DFE800F0BD
:10287000030E10100C0A074B986F10F0070007D1D9
:10288000FFF7D8BF0220FBE70320F9E70120F7E7B5
:10289000704700BF4889002008B54FF02003EFF3D0
:1028A000118183F31188BFF36F8F124A136843F0CD
:1028B000020013F0010310600CD04FF05022D2F848
:1028C0000C34D2F80C2413F0010303D00A4807F0AB
:1028D000AEFD012381F31188BFF36F8F23B1BDE8F3
:1028E00008400020FFF7A6BF0120BDE8084008F01F
:1028F00085BB00BFE8890020C08900201FB50022E9
:102900000123CDE902236B46084ACDF800D0CDF86B
:1029100004D007F0FCFD002805DB4FF480420023C3
:10292000684605F0E5FC05B05DF804FB53A5000022
:10293000074BD3E8EF2F22F00201C3E8E01F002885
:10294000F7D1D30702D4012008F0A7BB704700BF1E
:10295000E8890020C3B21C20014A03FB0020704715
:10296000488900202DE9F041012207463749D1E886
:10297000EF3FC1E8E02F0028F9D133B93449354899
:102980004B60CB608A6006F035FF7B1E012B2FD891
:10299000012F07D14FF05023D3F81C3403F0030369
:1029A000022B25D00AF034F9044618B92A4B1B78BB
:1029B000002B44D14FF02003EFF3118683F31188ED
:1029C000BFF36F8F01244FF05025DFF89080D5F8CA
:1029D0001834D5F81824D2030CD503F00303022BC6
:1029E00001D0012F06D124B386F31188BFF36F8F76
:1029F000BDE8F081C4B1304601F0A2FDD5F818352C
:102A0000DBB2012BE3D1D5F80421002ADFD000226C
:102A1000C5F80421D5F804210222C5F81825202282
:102A2000C8F88021AB60D2E70021212005F0A8FF83
:102A3000E4E74FF050230222C3F80423D8E74FF015
:102A4000502302220646C3F80823BCE7EC89002085
:102A5000388900206489002096C9002000E100E048
:102A600000F07F03082B42B204D010F0780F01D0A1
:102A700000207047002A00F00F0300F0080005DA7C
:102A800058B9084800EB43104C30704738B9054836
:102A900000EB431000F5B6707047034870470348D9
:102AA000704700BFF08F00203C9100205C92002016
:102AB000014601480AF03EB92403002001490248BA
:102AC0000AF06AB918900020D804002013B5002439
:102AD00000220121372001F0D9FC372001F0A4FCAD
:102AE0000A4803F0ADF80A4804F094FA4FF0FF33B7
:102AF0004FF4806207490848009405F001FD07493A
:102B000007480AF040F9204602B010BD0BDB000078
:102B1000F4D4000098CD0020D8040020312E00000D
:102B20001890002000220023014805F08DBB00BF53
:102B30002403002010B5054CFFF7F4FF20B1011D60
:102B400020460AF03CF8F7E710BD00BFA4020020C1
:102B500007B5002300220E4801A905F0DBF990B16A
:102B6000FFF7E8FF00220023094801A905F0D2F988
:102B700038B90423019840600374FFF799FFFFF709
:102B80009DFF002001E00198406003B05DF804FB68
:102B9000A4020020817870B506460846FFF760FF62
:102BA0000B060446F57812D5002D43D1FFF7D0FF70
:102BB000034600283ED00122A57702740322027347
:102BC0009C60FFF775FFBDE87040FFF777BF4DB120
:102BD000012D2FD1FFF7BCFF034658B3657705746D
:102BE0000573EDE7FFF7B4FF20B3B278124B12F094
:102BF000800F02F0080111D041B1D3F8A836E3608C
:102C000001230374022384600373DAE7142102F0C2
:102C10000F0201FB0233D3F80836F0E711B1D3F805
:102C2000A837ECE7142102F00F0201FB0233D3F8BE
:102C30000837E4E770BD00BF00600350022810B5FC
:102C400011D8094B1C5CFFF783FF60B100220472AE
:102C50000274FFF72DFF054B93F824301BB1BDE83C
:102C60001040FFF72BBF10BD08DB0000F08F0020E5
:102C7000002210B50C4901F12003D3E8EF0F012821
:102C800003D1C3E8E42F002CF7D10BD1CC690C3170
:102C9000204606F01DFE783004D12046BDE81040E5
:102CA00006F0F1BD10BD00BFF08F0020F0B5064664
:102CB00089B01422002103A807F089FE3378013B74
:102CC000052B21D8DFE803F07A0314146A160323D6
:102CD00000248DF81430FFF73BFF0346A0B100F14C
:102CE00008020474DDE9050182E8030018461DE0CE
:102CF0000423EDE7B1780846FFF7B2FE837A044675
:102D000023B1013B022B43D909B0F0BD0B06F57886
:102D100013D5002DF8D1FFF71BFF03460028F3D091
:102D20000122A5770274032202739C60FFF7C0FEA4
:102D300009B0BDE8F040FFF7C1BE55B1012DE3D1A8
:102D4000FFF706FF03460028DED06577057405739C
:102D5000EBE7FFF7FDFE07460028D5D001230374FB
:102D600002238460037304F10C01B07808F08AFA3E
:102D7000134AE168B2F88C328B4206D95B1AA2F88A
:102D80008C3203F09DFE3846D0E7A2F88C52FAE769
:102D9000304609B0BDE8F040FFF7FCBE01A803F0E3
:102DA00069FE9DF80530052B04D19DF8043013F021
:102DB000600FA9D0034B012405938CE702248AE716
:102DC000F08F00205C91002038B5002464F07F0073
:102DD000C0B2FFF745FE013407F0BEFB082CF5D169
:102DE00000240F4DE0B2FFF73BFE036903B9056114
:102DF000013407F0B1FB082C05F14005F2D1094C74
:102E000004F5A67007F0A8FBD4F87C3213B9064B82
:102E1000C4F87C32054807F09FFB002038BD00BF96
:102E2000F08D0020F08F0020F08900205C920020BF
:102E30002DE9F0430746AD4CDFF8B48285B0FFF7CB
:102E400071FE10B905B0BDE8F08394F82530027C1E
:102E500000F104093BB9002A00F08580494640464C
:102E600009F0ADFEEBE7042AF8D8DFE812F07C00A9
:102E70000500FE0014012F01037B8568032BEDD8AC
:102E8000DFE803F0023C595E6E69082200213046FB
:102E900007F09DFD974B9848D3F880243270D3F803
:102EA00084247270D3F88824D3F88C1442EA012267
:102EB0007280D3F89024D3F8941442EA0122B280AD
:102EC000D3F89824D3F89C34314642EA03230822ED
:102ED000F380EA6007F050FD2B680021687A98477C
:102EE0003378DB0906D1F38823B1A4F88C3203F0E0
:102EF000E7FDB3E70023A4F88C32AFE76B7F002B2C
:102F0000ACD02B7F002BA9D000264FF0FF326E777C
:102F10004FF0FF3379482E7707F031FB6B6901A939
:102F200001936B68CDE90236687A03F0CDFB7348F4
:102F300007F027FB92E701212B68687A98478DE715
:102F4000AB7A6BB9EB7F5BB96C484FF0FF324FF057
:102F5000FF3307F014FB03F0E7FD684807F011FBAF
:102F600002212B68E9E7027A042A3FF677AFDFE80F
:102F700002F057032165710003F056FB0546002857
:102F80007FF46CAF03F0F4FA01235D49D1E8EF2F31
:102F9000002A03D1C1E8E03F0028F7D17FF45EAFFB
:102FA00041F8105C41F8085CE0691439636106F08F
:102FB00021FC53E7002565F07F00C0B2FFF750FD0C
:102FC000037A13B1407A03F0A3FF0135082DF2D143
:102FD00094F854311BB194F8550103F099FF002582
:102FE000E8B2FFF73DFD037A13B1407A03F090FF9A
:102FF0000135082DF4D194F874321BB194F87502A0
:1030000003F086FF012003F0E9FA012384F825305C
:103010002368002B3FF422AF0021022098471DE7D0
:10302000002584F8255003F001FFFFF721FE2368F7
:10303000002B3FF413AF29460420EFE7002B3FF4A9
:103040000DAF03F00DFF2368002B3FF407AF002105
:103050000520E3E72268002A3FF400AF002B3FF48D
:10306000FDAE002106209047F8E607F110054FF06D
:10307000FF334FF0FF32284607F081FAFFF7A4FE36
:10308000284607F07EFA57F8283C002B3FF4E6AEBE
:1030900000210120C2E794F874327BB1012584F845
:1030A000895284F88852FFF753FD38B1154A0574E8
:1030B00005738260FFF7FCFCFFF700FD57F8283C22
:1030C000002B3FF4CBAE00210A20A7E703F08AFFD4
:1030D00003F0ACFE03F042FAFFF72CFDFFF774FE9D
:1030E00003F078FF084803F0A9FAB7E6F08F002054
:1030F000A402002000600350F48F002028900020DC
:10310000109000205C920020AD2C000038B51A4DC4
:1031100095F8244054BB05F1380009F098FD0220D1
:10312000FFF718FC22460121E861362001F0AEF9D4
:10313000124803F083FA124B984219D103F04AFF68
:10314000FFF742FE044610B9012385F824300D4BE9
:103150001B680BB1FFF7B2FC0B4BD3F80034DB0755
:1031600002D50020FFF76AFD204638BD0024FBE7AA
:103170006FF00404F8E700BFF08F0020AD2C0000D2
:103180000000AD0B240300200070035010B54FF079
:10319000FF324FF0FF331F4807F0F1F90024FFF72B
:1031A000C9FC64F07F00C0B2FFF75AFC0021202266
:1031B000013407F00CFC082CF3D10024E0B2FFF737
:1031C0004FFC00212022013407F001FC082CF5D12E
:1031D00020220021104807F0FAFB202200210F488E
:1031E00007F0F5FB03F020FA08B103F01FFE03F02F
:1031F00013FA08B103F0B2F90024FFF739FD03F028
:10320000F1FE074880F82440383007F0BAF920462C
:1032100010BD00BF289000203C9100205C9200204F
:10322000F08F0020074B93F824203AB193F8253013
:10323000002B0CBF6FF01200002070476FF01200DF
:10324000704700BFF08F00200F4B014693F82430E9
:1032500010B5B3B104782046FFF702FC10B96FF047
:10326000150010BD44720B798372498823074160B1
:1032700002D44B1E0B42F2D1204607F0FEFF002085
:10328000EFE76FF01200ECE7F08F0020124B0146E1
:1032900093F8242010B5CAB193F82530B3B1FFF7E5
:1032A000DFFB0446A8B1837A012B12D007D9023B79
:1032B000012B07D900206369E060A36110BD03F012
:1032C0003BFCF7E7084603F0A7FBF3E76FF01200BB
:1032D000F4E76FF01500F1E7F08F002038B50E4BE2
:1032E000054693F8242082B193F825306BB1FFF79F
:1032F000B7FB68B115F008040AD1284603F0AEFB0D
:10330000284603F057FE204638BD6FF01200FBE759
:103310006FF01500F8E700BFF08F002038B50C4BB8
:10332000054693F824200C4662B193F825304BB142
:10333000FFF796FB48B141B1284603F075FB2070BA
:10334000002038BD6FF01200FBE76FF01500F8E7C2
:10335000F08F0020F8B5134F044697F82430BBB126
:10336000FFF77EFB0546B0B1230705D4204603F0E6
:1033700075FB204603F01EFE2E7A7EB9012397F8D6
:1033800025002B7218B1204603F0C2FD3046F8BD6F
:103390006FF01200FBE76FF01500F8E76FF07700B1
:1033A000F5E700BFF08F002038B5114B014693F8C8
:1033B00024209AB193F8253083B1FFF751FB0546DD
:1033C00078B1037A83B10024084603F079FD2846DA
:1033D000AC7707F0C1F820462C7238BD6FF01200B0
:1033E000FBE76FF01500F8E76FF07700F5E700BF37
:1033F000F08F00202DE9F043DFF8DC801C4698F8C0
:10340000243007468946164685B0002B5DD098F8D3
:103410002530002B59D003065AD5FFF721FB05466E
:10342000002855D0037A002B52D04FF0FF334FF0D5
:10343000FF3208F1380007F0A2F8AB7F4BB108F17A
:10344000380007F09EF86FF00A04204605B0BDE88A
:10345000F08316B9EB7F03B1EE77AB7ABBB95EB1FF
:10346000B8F80A30B34207D96A68B6FBF2F302FB38
:1034700013630BB90123EB7703F066FBB84206D068
:1034800003F052FB154807F07CF80024DDE7012328
:103490004FF00008AB77384601A9CDE90196CDF889
:1034A0000C8003F011F90E4B984207D085F81E806E
:1034B0000CB1C4F800806FF0040402E00CB1266087
:1034C0004446064807F05DF8BFE76FF01204BCE71A
:1034D0006FF01504B9E700BFF08F0020289000209E
:1034E0000000AD0B2DE9F0411D46204B174693F827
:1034F00024200E46002A33D093F8253083B30306E8
:1035000031D401B97FBBFFF7ABFA044658B3037A55
:103510004BB34FF0FF334FF0FF32154807F02FF851
:10352000E368B8469F4228BF984646B93FB905B1FF
:103530002B600F4807F025F80020BDE8F0814246D7
:103540003046A16907F018FAA3694344A361E36810
:10355000A3EB0803E360002DEBD0C5F80080E8E79B
:103560006FF01200E9E76FF01500E6E7F08F00203A
:103570002890002070B51E4D034695F8242082B394
:1035800095F825206AB31B062ED4FFF769FA044686
:1035900050B3037A43B34FF0FF334FF0FF3205F1DE
:1035A000380006F0ECFFE368B3B9012663692677BB
:1035B000A361637F83B1FFF7CBFA30B905F138001F
:1035C00006F0DFFF6FF00B0070BD067484600673B9
:1035D000FFF76EFAFFF772FA064806F0D2FF0020F6
:1035E000F2E76FF01200EFE76FF01500ECE700BFB5
:1035F000F08F00202890002008B5084B93F8243065
:103600002BB1FFF72DFA28B10160002008BD6FF043
:103610001200FBE76FF01500F8E700BFF08F002005
:10362000014B1860704700BFF08F002008B5074BB2
:1036300093F8243023B1FFF713FA20B1406808BD96
:103640006FF01200FBE76FF01500F8E7F08F002035
:10365000044A1368C81A20F07F400344136005F041
:10366000F3BA00BF909200202DE9F0474FF4803765
:103670004FF00009860000F1500406F15026A40026
:1036800006F58036A4B204F15024D6F84035DFF8B0
:103690006C8021F07F4504F580348740D8F804A57C
:1036A000A3EB0A0323F07F432AF07F42012BC6F8E5
:1036B000402502D1132009F089FC0AF10202AB1A5D
:1036C00023F07F43B3F5000F88BF1546C4F8009080
:1036D000236825F07F43C8F84473C6F84035D8F80E
:1036E00004359A4506D0EB1A023B23F07F43B3F52D
:1036F000000F01D8BDE8F0872B46CFE700500150FE
:10370000F8B500252F46104C2668104B05B1F8BDC2
:10371000D3F80423D203FAD5D3F84021002AF6D0F7
:10372000C3F84051D3F840214FF48032C3F8482306
:103730000125D3F8401526B1002062682760B04704
:10374000E2E72660E3E700BF8492002000500150CA
:1037500038B500244FF480334FF400120C4D012192
:10376000C5F80845C5F804330A4B1520C3F8802175
:10377000224600F08BFE152000F056FE0123064A7B
:10378000AB6020462B601360FFF7ECF8204638BD95
:103790000050015000E100E08C920020134AB0F18B
:1037A000FF3F14BF03461346013B002B1CDD934231
:1037B000A8BF13460E4AD2F804050E4A1168401AF3
:1037C00010F4000F18BF002320F07F4201320A4896
:1037D00013440A4A106000205060044A934294BF88
:1037E000C9188918FFF740BF0023E3E7FFFF7F00F8
:1037F0000050015090920020513600008492002029
:10380000044BD3F80405044B1B68C01A20F07F401A
:10381000704700BF0050015090920020014805F011
:103820001DBB00BF80D5000010B5044618B90D4B74
:103830000D485B689847616808290DD031F0040392
:103840000AD011F0020108D02146084809F0B7F962
:10385000002323600023636010BD1422206807F05A
:10386000B6F8F7E76C0100201EDB00009492002000
:1038700008B540B34368042B0BD0082B16D003B314
:1038800000684FF0FF324FF0FF3304F029FC58B1CD
:1038900015E001220368D3E8EF1F002903D1C3E834
:1038A000E02F0028F7D10AD1002008BD0368074A9D
:1038B0001B7803F5807352F82330002BF4D00448B2
:1038C000F3E70448F1E76FF4E040EEE7000003504F
:1038D000E98FFFFFEA8FFFFF08B508B34368042BA9
:1038E00007D0082B13D0F3B1006804F06BFC002064
:1038F0000CE000220368D3E8EF1F012903D1C3E8DD
:10390000E02F0028F7D1094808BF104608BD03681A
:1039100000201B78064A03F5807342F82300F5E780
:103920006FF4E040F2E70348F0E700BFE98FFFFFE4
:1039300000000350EA8FFFFF10B5044618B9164B7C
:1039400016485B6898476368042B23D0082B21D066
:10395000CBB92368BBB94FF0FF324FF0FF3321469C
:103960000F4804F0D7FA08B923681BB90A4B0D4871
:103970005B68984714220021206807F028F86368E4
:1039800043F002036360206809F061F9636843F063
:103990000103636010BD00BF6C0100201EDB00004E
:1039A0009492002044DB000008B50649402314220D
:1039B000054809F0E9F8BDE808400449044805F065
:1039C0009FBA00BFB09200209492002098D50000CA
:1039D00088D50000F7B5234E306883685B6C03B16F
:1039E0009847306883685B6B002B32D11E4C1F4DAB
:1039F000306883689B69002B2ED001220DF10701EE
:103A00009847012828D1236843B92B6823B36968F4
:103A10001A688B422A6000D16A602360144A9DF8BC
:103A200007001188B1F5007F04D223684F1C0B44B6
:103A3000178018720A28DBD10020236811881860CB
:103A400059600C494D684DB9C1E9003310802060C0
:103A5000CDE798470028C9D103B0F0BD2B604B607B
:103A6000F4E700BFD89B0020B8970020B097002053
:103A7000F89F0020D09B0020044B10B50446186826
:103A80008368E1B25B689847204610BDD89B002050
:103A9000F8B506460B4615464FF02002EFF3118CA1
:103AA00082F31188BFF36F8F1848016841B1184A3B
:103AB00054688C4204D000270F609CB9C2E9001101
:103AC000144A116829B157680C68B942146008BFDC
:103AD00054608CF31188BFF36F8F016029B9002007
:103AE0002860F8BD21605160EAE748680831F6D0E7
:103AF0005C1E8442A8BF04463046224606F03CFFC6
:103B00000023335501232B60E018EAE7BC9700201F
:103B1000B0970020D09B002037B50025214B224ACA
:103B2000C3E90055214B03F502711360C3F8085235
:103B3000196051601E4804F0F7F81E4C206028B947
:103B4000206848B94FF0FF3003B030BD2846FEF77B
:103B5000B3F80028F4D0F5E7836823B19B6C13B168
:103B6000002215499847206883685B6B73B19847BA
:103B700060B90025114B20681D8083689B6A7BB962
:103B800085F31188BFF36F8F0020DDE7206883681D
:103B90009B69002BEDD001220DF107019847E7E763
:103BA0009847EDE7D09B0020B0970020C0970020F9
:103BB000EFDA0000D89B0020D5390000F89F0020E4
:103BC00038B54368044698188028154608D8064832
:103BD000184406F0D1FE002062682A44626038BDB5
:103BE0004FF00040FBE700BF0CC5002040F6061375
:103BF0002DE9F041DFF8F080D2B0D8F80000ADF840
:103C00000C303A4B08215C689A88037852BA013329
:103C10000370002342808288437052BA82800093EE
:103C200041F2210205F020FD0122314F03462146D9
:103C3000ADF810000092384641F2210205F014FD63
:103C400002252C4E40BA3368ADF81000022103A8BB
:103C50005B68984704F10A035BBA0DF11201022276
:103C600006A8ADF8123006F087FED8F8001008223A
:103C70000DF11A00ADF8125006F07EFEBDF81200EC
:103C800006AB083080B222463946ADF8120018441F
:103C900006F072FEBDF8120006AB204480B22A4640
:103CA000ADF8120004A9184406F066FEBDF8123003
:103CB00005AA2B449BB2ADF812300093AD2106ABA0
:103CC00026A8FDF75BFA05993368ADF8121026A80F
:103CD0005B6889B29847336829465B68064898470D
:103CE00052B0BDE8F08100BFE09B0020140100202D
:103CF0000CC50020DC9B002071DB00002DE9FF419A
:103D00000C681A4F02380D46C4F500710090184B2C
:103D1000381903AA0131FDF7B1FA044618BB2B6824
:103D2000039A1344022B2B6019D93E88023B76BAC2
:103D3000B6B29E4213D14FF00108034641F2210270
:103D40003146CDF80080B81C05F08EFC38B9022E43
:103D500005D92B68023B1F442B60BC7044462046AB
:103D600004B0BDE8F0814FF0FF34F8E78CC50020C7
:103D70008FC7002038B50C4C0C4D4FF0FF32214658
:103D8000284608F0ACFE2046094906F08DFC0023C9
:103D90000022204608F081FE2146284608F0AEFEAB
:103DA000BDE83840FFF722BFF49B0020E49B0020D1
:103DB00074DB00002DE9F04F07290446B3B059D950
:103DC000057815F0FD0555D14388A1F108065BBAC9
:103DD0009BB2B3424ED3AD4BAD49186083882A469F
:103DE0005BBA8380AB484D6008F04AFEA388012B84
:103DF00040F0B381E7793FB1012F00F09A8033B0F2
:103E0000BDE8F04FFFF7B6BF4FF0FF32A249A1481F
:103E100008F065FEA149A04806F046FC4FF0FF32CD
:103E20009D4808A908F058FE3C469D4E9D4FDFF87E
:103E300078822146002005F017F907A9C0B2FEF7E5
:103E40004FFC054658B92023014610AA079806F0F2
:103E500057FA109BB34212D0079806F050FA64B19B
:103E600008A98D4808F04AFE8B498A4808F046FEAA
:103E7000FFF7BCFE33B0BDE8F08F0124D9E7402343
:103E80000DF1600929462846CDE9035502950193B5
:103E9000CDF80090079B10AAFCF78EFB0546002882
:103EA000DAD1079806F02BFA4FF0FF320CA908A8D8
:103EB00008F015FE39460CA806F0F6FB22462B4604
:103EC0000CA808F0EAFD41460CA806F0EDFB9DF8B1
:103ED0005410484606F0C6FB4FF02E0A32AB451C84
:103EE00018449DF8551000F868AC09EB050006F081
:103EF000B9FB32AB2844451C1844BDF8561000F8F5
:103F000068AC09EB050006F0ADFB32AB05442B4471
:103F10000135169903F868AC09EB050006F0A2FB21
:103F200049460CA806F0C0FB0CA908A808F0E6FD5D
:103F300095E7314618AA04F10800089500F0FAF94F
:103F400008B9032432E04FF0FF392A462846AB4631
:103F50002E464C46AA46A846319F18ABBA4249D1D4
:103F600000218A4508BFB4F1FF3FEAD0B8F1000F45
:103F7000E7D005F079F808A9C0B2FEF7B1FB002838
:103F8000DFD154EA0A03494F09D1089B38609B6886
:103F90004B4570EB0B03D4DB454BC3F800903B68FB
:103FA000BAF1000F08BFA3423BD000244FF0FF320C
:103FB0003949384808F093FD37483E4906F074FB0C
:103FC00022463548E31708F068FD4CB932483A49B3
:103FD00006F06AFB354B30481A68234608F055FD59
:103FE0002D492C4808F08AFDFFF700FE089806F0DE
:103FF00086F93FE7197C032904D8DFE801F00206BF
:10400000090E986801321433A8E7D3E90286F9E76C
:10401000D3F808904FEAE97BF4E79C684FEAE47A2A
:10402000F0E7DFF88CA03344DAF80020934288D818
:10403000089806F0E1F9B6FBF0F303FB106338686B
:10404000DAF800208119914238BFF61A0CA93044E1
:1040500028BFDDB2FCF796FA04460028A6D1DFF8A7
:104060005C900C99D9F80030994205D139683DBB74
:104070003346424608984AE00D9A0898C9F800105D
:1040800006F08AF904460028F0D08FE7E09B002074
:1040900014010020E49B0020F49B002077DB00004B
:1040A0003DB8F3967EDB000083DB0000049C00201B
:1040B000089C002074DB00008BDB00001C0100204A
:1040C000741B2AD023464246089806F036F9002889
:1040D0007FF437AF2E463B68A04423443B602A461A
:1040E000414610A806F048FC089806F08EF910AB7F
:1040F0000146C5F10802581906F069FC089C3D68A4
:10410000204606F079F929460346204610AA06F013
:1041100014F900287FF415AF01E0002EDFD13B68D1
:104120001E44DAF800303E609E427FF43EAF0898AD
:1041300005F04CF80CA9FCF725FA044600287FF49A
:1041400035AF0C99D9F8003099427FF72EAF0D9A10
:10415000089806F021F9044628E7002B7FF48AAE80
:10416000E379012B3FF44BAE052B7FF483AEFFF7D1
:1041700001FE00214FF4005004F002FC012033B096
:10418000BDE8F04F05F057BFF7B500240546194BC1
:10419000194E1A4F00941860C4F500712B6801AADB
:1041A0000131301998470028019B01DC002BF3D026
:1041B00004442BB940F201239C42EDD10024EBE7EB
:1041C0003378062B09D17378092B0BD10023009388
:1041D0006946A01EFFF792FD04E0042B02D173781C
:1041E000142BF5D00128E9D1009938460239FFF7A0
:1041F000E1FDE3E7DC9B00208DC700208EC5002099
:104200002DE9F041076805460C4617B90020BDE8C6
:10421000F08100231A46D0F8088006F0E4FA88B14D
:10422000D4E900123E4806F07EFB064650B903462C
:10423000024604F10801284606F09BFA10B12674E4
:104240000120E4E7002321461A4628462F60C5F8DE
:10425000088006F0C8FA80B1D4E90012314806F0AF
:1042600062FB034648B9024604F10801284606F0FD
:10427000BAFA10B101202074C9E7002321461A467A
:1042800028462F60C5F8088006F0ADFA80B1D4E961
:104290000012254806F047FB034648B9024604F1E0
:1042A0000801284606F065FA10B102232374C7E717
:1042B000002321461A4628462F60C5F8088006F0DC
:1042C00092FA78B1D4E90012184806F02CFB0346A4
:1042D00040B9024604F10801284606F04AFA08B13E
:1042E0000323E3E7002321461A4628462F60C5F83A
:1042F000088006F078FA002888D0D4E900120C482B
:1043000006F011FB0346002880D1024604F10801A3
:10431000284606F068FA00283FF478AF0423C5E782
:104320008FDB000095DB00009ADB00008BDB0000D8
:104330009EDB000070B501258CB0099009AE0844E1
:1043400005230A90144630462A4607A90B9506F025
:1043500055FA002360B11422CDE90143CDE90332BF
:1043600005212846044B009604F1640206F064FA25
:1043700000F001000CB070BD01420000094A0A497A
:10438000936809681867596708494B6843F0805378
:104390004B60002383F31188BFF36F8F9368586FCE
:1043A000704700BFAC9F002024D8000000ED00E063
:1043B00013498A684FF030001044EFF3098C80E80D
:1043C000F01F202080F31188BFF36F8F0D4F4FF047
:1043D0000066CA698A603E60106F0023136780F32D
:1043E000118802F1300090E8F01F8CF3098802F187
:1043F000000004B506F04DFABDE804407047000027
:10440000AC9F002004ED00E01EF0040F0CBFEFF3A2
:104410000880EFF30980816911F8021C0229FFD09E
:1044200001B506F03CFA01BD43B2002B08DB0122C6
:1044300000F01F0002FA00F0024A5B0942F8230074
:10444000704700BF00E100E043B2002B0DDB01220A
:1044500000F01F0002FA00F05B09044A203342F822
:104460002300BFF34F8FBFF36F8F704700E100E071
:10447000054B420953F82220012300F01F0003FAE4
:1044800000F01040704700BF00E100E043B2002B95
:1044900001F10101ACBF03F16043064B4FEA41114A
:1044A000C9B2ABBF03F5614300F00F0083F80013FE
:1044B0001954704714ED00E042F8203C009B0B4972
:1044C00042F81C3C019B21F0010142F8183C029B80
:1044D00042F8081C42F8143C4FF0807342F8043C48
:1044E0000023203A02650367704700BF619900000E
:1044F000084B9860036E83F30B88104681F309889C
:10450000002163B681F31188BFF36F8F002200236F
:1045100005F026FAAC9F0020014910220A6070477E
:1045200010ED00E072B6404080F31188BFF36F8F4A
:10453000BFF34F8F30BF62B6BFF36F8F704700BFBE
:1045400072B6494081F3118820BF80F3118862B6AA
:10455000704700BF30BFFFF7FDBF00BF0B4A08B573
:104560000B4B22F07F029A60BFF34F8FBFF36F8F28
:10457000D3F8882022F47002C3F8882003F0FEFBF1
:1045800004F092FA00F07AF903F01CFC000000003D
:1045900000ED00E001B5EFF30580A0F110004FEA57
:1045A000C0000449014409C99847BDE801400249D7
:1045B00008470000B0D10000D1470000002080F380
:1045C0001488BFF36F8F002080F30A8880F30B8874
:1045D00005F044FD00200E490860BFF34F8F0D48E1
:1045E00080F3088800F026F9202080F311880A481B
:1045F0004FF40061401880F30988EFF31480022122
:10460000084380F31488BFF36F8FFFF7A7FF000004
:1046100094ED00E098F90020D8FA0020EFF308802C
:10462000EFF3098101B5724600F056F801BD00BFF5
:10463000094B9A6A9A6A986A9A6A9A6A9A6A9A6A0C
:104640009A6A10F480106FEA02426FEA124218BFB1
:1046500002209A62704700BF00ED00E00D4B9A6A9D
:104660009A6A9A6A920507D59A6A120404D518B113
:104670009A6A22F400429A620020064B9A6A9A6A69
:10468000D20558BF9A6A9A6A42F47F429A620870C9
:10469000704700BF00ED00E00E4B9A6A9A6A9A6A72
:1046A000920708D55A6B9A6A120604D518B19A6A0D
:1046B00022F080029A620020064B9A6A9A6A9A6AED
:1046C000D20658BF9A6A9A6A42F0FF029A6208704C
:1046D000704700BF00ED00E070B5364B0E465B68DA
:1046E00000258AB0C3F3080385F31188BFF36F8FE9
:1046F00002F07F41B1F17F4F11D102F00C01082986
:104700000DD0110701D4064601250022033B8DF888
:104710000720032B46D8DFE803F0043D413A2E463C
:10472000F3E7244BDA6A92073CD4DC6A14F0804445
:1047300008D093F82820EAB101200DF10701FFF716
:10474000ABFF04469DF8073093B92022314602A8FA
:1047500006F012F9099B3DB3C3F3080222B96FEAD0
:1047600053236FEA43230993204602A906F095F8E4
:104770000AB070BD93F829202AB101200DF107017C
:10478000FFF76CFFDDE7588D84B2002CDAD0FFF71D
:104790004FFFD6E700200DF10701D0E700200DF113
:1047A0000701EDE70024CDE723F4FF7323F00103B5
:1047B000D9E700BF00ED00E0044B5A6942F0100257
:1047C0005A615A6942F480625A61704700ED00E014
:1047D000044B9968D869884203D003494FF080524E
:1047E0000A607047AC9F002004ED00E0BFF34F8FDC
:1047F0000549064BCA6802F4E0621343CB60BFF37D
:104800004F8F00BFFDE700BF00ED00E00400FA0598
:10481000002318460649D1F89020C2F3072293429C
:1048200000D17047C1F89830C1F8A0000133F6E715
:1048300000ED00E010B572B6002484F31388FFF792
:10484000E7FF23464FF0FF300B4A03F1200101330D
:10485000102B42F82100F8D100234FF0FF3003F174
:1048600060010133102B42F82100F8D162B6BFF38A
:104870004F8FBFF36F8F10BD00E100E000232021B8
:104880000348C2180133452B82F80013F9D1704751
:1048900000E100E0064B9B68834207D1EFF30583FC
:1048A00023B1044A536843F08053536004F098B82E
:1048B000AC9F002000ED00E01FB5094C094A2346DB
:1048C0000121094800F0F2F800230393074B01216E
:1048D000E41A01A80193029400F0F2F804B010BDAC
:1048E00000E0062000000020ACD5000040040020BD
:1048F00010B50B680C7A23F01F0204F01F031A4353
:10490000CB68640923F01F03054943EA440343F0DD
:104910000103C1F89800C1F89C20C1F8A03010BD77
:1049200000ED00E02DE9F04F0F46144606464FF02B
:104930000008524D85B0B84509DAD6F80490B9F1AF
:10494000000F3BD0B9F11F0F05D86FF015042046BA
:1049500005B0BDE8F08F19F01F0FF6D1D6F800A012
:104960001AF01F0FF1D1504605F0A4FF834609EB62
:104970000A00013805F09EFF8345E6D11BF1160FB2
:10498000E3D0631E5B45E0DBC5F898B0D5F89C101A
:10499000C5F898B0D5F8A03021F01F0143F01F0AE8
:1049A000D6E900321A44994202F1FF391ED1CA45B4
:1049B00008D131465FFA8BF005F085FF08F1010858
:1049C0000C36B8E73146C5F898B0D5F89C3022F0DF
:1049D0001F0203F01F031A43C5F89C20E0B205F044
:1049E00072FF10F1160FB0D0441CE7E7013BCA4537
:1049F000E0B223F01F03C5F898B008D1D5F8A02085
:104A0000314602F01F021343C5F8A030E7E7D5F89E
:104A1000A01001F01F010B43C5F8A030314605F08E
:104A200052FF10F1160F90D0C5F898B0D5F89C2021
:104A30009DF808300AF1FF3A62F304038DF808305C
:104A4000D5F8A0309DF808205B0863F347128DF875
:104A50000820D6E900321344009323F01F03411CC1
:104A60005344A3EB0903C8B223F01F0307280393A1
:104A70003FF66BAF6946FFF73BFFB5E700ED00E09F
:104A80000522044BC3F89420BFF34F8FBFF36F8F01
:104A9000704700BF00ED00E0BFF35F8F0022024BC4
:104AA000C3F89420704700BF00ED00E010B5034C40
:104AB0002278FFF737FF207010BD00BF8EC900209D
:104AC0002DE9F74F294D8A4606464FF00008AB46C0
:104AD000274FD0451BDAD6F80490B9F1000F3FD02C
:104AE00031680846019105F0E5FE0199044609EB9D
:104AF0000100013805F0DEFE84424FF014021D4B28
:104B000008D06FF0150302FB08F84BF8083003B02B
:104B1000BDE8F08F14F1160F2C60F8D01978A1427F
:104B2000F5DD02FB08B0C7F89840C7F89840D7F801
:104B30009C4000F10801007B64F304000871D7F881
:104B4000A0000C79400860F347140C71D7F89C1052
:104B500021F01F016960D7F8A01021F01F01296121
:104B600008F1010814350C36B3E700BF0C9C002097
:104B700000ED00E08EC9002038B50E4D2C68082CE1
:104B800015D80020FFF788FF0B4B0C4AC3F8C02054
:104B9000844205D10A4B00201C70FFF771FF38BD1D
:104BA000696801EB0011FFF7A3FE0130F0E74FF059
:104BB000FF30F4E7B8D5000000ED00E0AAFF4400A4
:104BC0008EC9002008B51B4805F03CFF10B96FF0F6
:104BD000120008BD4FF4B0520A21164805F01AFF22
:104BE0000028F6DB144805F02DFF0028EFD041F235
:104BF00001621621104805F00DFF0028E9DB0D4881
:104C000005F020FF0028E2D041F2016204210948AA
:104C100005F000FF0028DCDB074805F013FF002843
:104C2000D5D041F201621821034805F0F3FE00EAF5
:104C3000E070CEE714020020FC01002008B5094B0B
:104C40001A786AB901210D2019700521FFF71EFCA1
:104C50000D20FFF7E9FB4FF00042034BC3F804239C
:104C6000002008BD8FC9002000D000502D4BF0B5AA
:104C700044682D481340834245D00DD8062B15D0EB
:104C800005D89BB1022B40D06FF015003AE0B3F588
:104C9000801FF9D1012309E02448834237D0B3F5BE
:104CA000A00F36D0B3F5800FEED10223D0064CBF53
:104CB0000326C2F3401682F480759705C2F34020A4
:104CC000C5F3002506D512F4006F676823D00122D2
:104CD0008A40BA60277A164A164C01F01F01012F4C
:104CE00008BF144640EA4502002004EB8101D1F8D8
:104CF000004242EA032304F0E04443EA86032343EC
:104D0000C1F80032F0BD0723D0E70423CEE7052326
:104D1000CCE70323CAE7520542BF01228A40FA606A
:104D2000D8E700BF0600F0000600100002004000B7
:104D3000002884500025845010B5094B094C00F020
:104D40001F024009012808BF234603EB8203D3F862
:104D5000002222F4403242EA0142C3F8002210BD90
:104D600000258450002884502DE9F84F03698846B7
:104D7000D3E90521DE680A4326EA02063746012404
:104D80004FF00009D0F804A01B69DAF80420DFF81E
:104D900068B015695D40194B26EA050517B9284624
:104DA000BDE8F88F3C4222D09AF8082009F01F0095
:104DB000344240EA421014D14FEA501CBCF1010FBA
:104DC00014BF5946194600F01F02803251F82220C4
:104DD000C2F30142022A02BFD8F800202243C8F8D9
:104DE00000200021FFF7A8FF044B27EA040709F180
:104DF00001096400D2E700BF0025845000288450D8
:104E0000F0B5002485B0CDE90044CDE90244284E38
:104E1000D6F87C516DB102A92648FFF7A5FF03A97A
:104E200000902548FFF7A0FF0190C6F87C41D6F816
:104E30007C3100220126944620491D4CD4F80433CD
:104E400006FA02F0184216D00B68A3B102F5A2735D
:104E500054F8233004AFC3F3403007EB800050F820
:104E6000107CC3F3042306FA03F33B43C1F800C0EC
:104E700040F8103C0B680132082A01F10401DDD131
:104E8000009A22B10E4B0B49586805F031FE019A89
:104E900022B10C4B0849586805F02AFE2DB105488F
:104EA00005F037FE044805F034FE05B0F0BD00BF44
:104EB00000D00050FC0100201402002000D100505E
:104EC000289C0020449C0020F7B51446426801F05D
:104ED0001F05127AB4F5A03F0E46076945EA421550
:104EE00010D16349DFF88CC16809012808BF614609
:104EF00005F01F02803251F82220D00707D56FF04D
:104F000085009AE0B4F5005FF96800F0988001210F
:104F1000FA68B1401143F960012100207A69B1407B
:104F2000B4F5A03F0CBF0A438A437A61BA69B3F56E
:104F3000C02F0CBF0A438A43BA613A69B3F5802F88
:104F40000CBF114322EA01014B4A3961D2F8043304
:104F5000DBB200F5A27152F82110C1F305218D4298
:104F600072D123FA00F1C9076ED5830003F1A04383
:104F700003F55043D3F8101521F00101C3F81015C3
:104F800001238340C2F80833C0B200F07BFD2846FD
:104F90000021FFF7D1FEF868F04010F001004CD07E
:104FA0007869F04010F0010455D0BB690DF107009D
:104FB000F340DB0757BF3969032621FA06F606F0EE
:104FC00001065CBFC6F10206F6B200F07BFD2B4B7A
:104FD00098423DD100209DF807202D02930003F157
:104FE000A04303F55043D3F8101505F47C5521F484
:104FF0004F3121F44071C3F81015D3F810150D434B
:1050000045EA0646C3F81065930003F1A04303F593
:10501000514318609DF807101B688B0003F1A043F3
:1050200003F55043D3F8102542F00102C3F81025D0
:105030000123114A8B40C2F8043303B0F0BD0122B2
:10504000B24021EA020166E70130082881D19EE7DB
:105050006FF01200F1E739692846F14001F00101D3
:10506000C1F10301C9B2FFF767FE2046E5E700BFC3
:10507000002584500028845000D000500000AD0B63
:1050800000F1744000F5A6000A289ABF024B33F9DC
:1050900010006FF00F007047B4D800000048704750
:1050A0005CD60000024B0B6001231360704700BF09
:1050B0004CD60000054B994206D14FF0FF324FF01D
:1050C000FF33203003F014B9704700BF0000AD0B70
:1050D0002DE9F04F81460F461C46164685B0002A42
:1050E00000F09280002B00F08B8000294268C0F213
:1050F0008B805268CB18934200F286807D4205F087
:105100000305006905F0B8FDA54228BF2546734296
:1051100003F0030306F0030B58BFC3F1000BCBF100
:10512000000B0BF0030BA34528BFA346631BA4EBA6
:105130000B0424F0030423F00308A045C8BFA046D5
:1051400003F0030AC8BFA3EB040AB8F1000F18D09C
:1051500006EB0B037A1941461846019306F028F82E
:1051600004460146D9F81000FFF7A4FF284A9442EC
:1051700039D15D4505D0019B42461946701905F0AD
:10518000E3FBB5B13A1F04212A4402A806F010F847
:1051900004460146D9F81000FFF78CFF1C4B9C42D7
:1051A00021D1C5F1040102AB2A463046194405F06D
:1051B000E3FBBAF1000F21D008217A1942440DEB2C
:1051C000010005F0F5FF04460146D9F81000FFF78D
:1051D00071FF0F4B9C4206D108EB0500524602A915
:1051E000304405F0C9FBD9F81000103005F03CFD43
:1051F000204605B0BDE8F04FFFF742BF044CF2E790
:10520000184605B0BDE8F08F6FF01500F9E700BF54
:105210000000AD0B2DE9F84F0D1E80461746D0F863
:1052200004906CDBD9F80430AA189A4267D8002F92
:1052300065D045EA0704C4F30B04002C5FD1006974
:105240004FF0FF324FF0FF3303F052F82146404653
:1052500005F056FD0446D8F8100005F00DFDDFF806
:10526000A4A004B99FB9D8F81000103005F0FCFCD8
:105270000121404605F044FD0546D8F8100005F030
:10528000F3FC002C08BF2C462046BDE8F88FD9F867
:105290000430BB420ED105F08EFFBB4606463146B8
:1052A000D8F81000FFF706FF564523D15D44A7EB61
:1052B0000B07D6E7B7F5803F09D3ABB253B9294600
:1052C000012000F033FF4FF4803B0646E7E7B7F5D7
:1052D000805F09D3C5F30B0030B9294600F026FFE3
:1052E0004FF4805B0646DAE74FF0000B6FF01504D1
:1052F0005E46D4E73046FFF7C3FE0446B1E76FF0E1
:105300001504C1E70000AD0BF0B54FF050230027A6
:10531000064687B03A4601212B20C3F8B875FFF73F
:10532000B5F82F4C2F49304B7568C4E901134FF481
:1053300030633269204623822C49E760276000F001
:10534000E7FDFFF79DFE002846D1304605F0EDFC55
:10535000002841DBE37AC0B2023B012B3ED9A37A9D
:10536000033B012B8CBF00230123C0F38012934227
:1053700001AC19D00122002380F040008DF800001C
:1053800003A93046CDE90223CDF804D005938DF86A
:105390000C20049405F077FCF0B9304605F0C5FC0C
:1053A000002819DBC307F8D4002203279F233046C7
:1053B00003A9CDE90272CDF804D004928DF80C3027
:1053C000059405F060FC28B93A466946284605F080
:1053D000AAFA08B16FF0120007B0F0BD0123C4E7CC
:1053E000789C002011120D0EFFFF02006DAC000032
:1053F0002DE9FF47054688461F469146002A7AD088
:10540000002B78D0042B01D9BB0774D118F0030608
:1054100071D1B8F1000F6B686DDB5B6808EB0704B6
:105420009C4268D828694FF0FF324FF0FF3302F0FA
:105430005FFF3146284605F063FC0446286905F005
:105440001BFC002C3ED1032F1CD842460421684689
:1054500005F0AEFE044601462869FFF72BFE284BF7
:105460009C422FD13A464946684605F085FA4246A5
:105470000421684605F099FE044601462869FFF7B5
:1054800019FE1FE009F06043B3F1005F2FD0DFF891
:1054900070A0102F3E4628BF102649463246684667
:1054A00005F06AFA42461021684605F07EFE044681
:1054B00001462869FFF7FEFD544503D1BF1BB144E7
:1054C000B044E6D12869103005F0CEFB0121284612
:1054D00005F016FC0646286905F0C6FB002C14BF33
:1054E0002046304604B0BDE8F047FFF7C9BD42464C
:1054F00039464846BEE76FF0150004B0BDE8F087B6
:105500000000AD0B024B0B6001231360704700BF1E
:10551000949C00200048704794D6000010B50122EA
:105520000648114607F011FC05F035FE044C2060DA
:1055300005F02EFE6060002010BD00BF9C9C002086
:10554000949C002070B50D46144605F021FE2146BE
:105550000646284605F004FC00B3B5FBF6F306FB4F
:105560001353DBB9B4FBF6F306FB1340B0B9B442F6
:1055700013D34FF0FF324FF0FF330A4802F0B8FE6A
:1055800005F006FE0646284600F0EAFAA41B35445C
:10559000F9D1044802F08CFE204670BD6FF0150072
:1055A000FBE700BF9C9C00202DE9F0410E46194608
:1055B000304615461C4605F0D3FBB8B3CCB34FF0CC
:1055C000FF324FF0FF331C4802F092FE16F0030743
:1055D0000CD0C7F10407A74228BF2746294630460A
:1055E0003A4600F0EBFA3E443D44E41B002724F029
:1055F0000308474507EB060013D16FF00303A20829
:1056000003FB0242E9190AB100F0D8FA0B4AD2F8BA
:105610000034DB07FBD5084802F04AFE0020BDE855
:10562000F081E95900F0BAFA0437E2E76FF01500AB
:10563000F5E72046F3E700BF9C9C00200090035054
:10564000064B1868064B984205D0064B984214BF8B
:105650000220012070470020704700BF00E00620B4
:10566000B6B3B4B55DCE03F11022154B10B5C3F837
:1056700040244FF050220123C2F81436E0B1D9B1D2
:10568000104B114C99604FF40841C3E90040D960B8
:1056900000230E4CC2F81436204607F097FCFFF7A3
:1056A000CFFF0028F8D0022805D04FF05023012268
:1056B0000020C3F8142610BD6FF01500FBE700BFF3
:1056C0000030005000E00620B6B3B4B540420F00F1
:1056D0004FF48272014BC3F8DC2770470030005052
:1056E000816808B5044A1023103904F026FE0038FA
:1056F00018BF012008BD00BF9CD6000030B50C4685
:10570000816887B0102302AA1039054604F0F8FD1D
:10571000002802DA012007B030BD1022284602A975
:1057200005F0C1FB68B303232370A9680123284651
:105730000DF10702283904F0E3FD0028EADB9DF8AB
:105740000730284603F00F021B0962702371012203
:105750000DF1070105F0A7FB10B96378042B03D9FD
:105760000123637000232371AA682846203AA11CF4
:1057700005F0C1FB0028CDD12846E11C05F014FC42
:10578000C9E71022044902A805F0CDF8002814BF8B
:1057900002230123C8E700BF9CD600002DE9F04397
:1057A00085B06946032005F003FC58BB012002A91F
:1057B00005F0FEFB024628BB9DF800509DF80860EE
:1057C0009DF803709DF80B809DF80290144C2946BB
:1057D000207805F07CFBC8B13146607805F077FB96
:1057E000A0B1A378042B01D0BB420FD1E378042BE6
:1057F00001D043450AD12379042B05D16079831E5A
:10580000022B09D9FF2007E04B45F7D00132032ACC
:1058100004F10604DBD1012005B0BDE8F08300BF30
:10582000E4DB00004FF47F03D3F83021072A07D1CF
:10583000D3F83431023B032B02D8024AD05C7047C4
:1058400000207047F6DB00004FF05023D3F85825B6
:10585000034B02F00302D340024A1360704700BFBB
:105860000020A1075001002008B5FFF7DBFF58B169
:105870003E4BD3F8202A3AB90D21C3F8201A012152
:10588000C3F81C19C3F81C290022D30003F57F03B9
:10589000D3F80013013107D0D3F800130132D3F845
:1058A0000433202A0B60F0D1FFF7BCFF002855D14C
:1058B000FFF7B8FF40B12E4B2E4AC3F830254FF00A
:1058C00050230122C3F858254FF47F03D3F8302129
:1058D000072A0BD1D3F83431023B032B06D8264AD2
:1058E000D35C1BB10022254BC3F84C25FFF79AFF70
:1058F00050B14FF05023D3F80024D10742BF00220B
:10590000C3F81421C3F818214FF47F03D3F83031C2
:10591000072B09D14FF05023D3F80024D20744BFFE
:105920006FF00102C3F80024FFF77CFF18B1652275
:105930000E4BC3F80C27124AD2F88C3043F4406364
:10594000C2F88C300F4A104B1168C3F84415D26965
:10595000C3F84C25BDE80840FFF776BF2922034B6A
:10596000C3F80C270322C3F83C27A1E700400050EE
:10597000009003504400EFBEFADB0000002003500B
:1059800000ED00E00080FF0000600050044B1A7939
:1059900022B9012218601A71024870470248704704
:1059A000AC9C00200000AD0B0C00AD0B08B5052031
:1059B000FEF75EFD10B90520FEF736FD4FF05022D0
:1059C0000123C2F81435C2F88035014A137008BDAE
:1059D00090C900204FF05023D3F8002110B552B1E8
:1059E0000020C3F80001D3F800210122C3F80823E6
:1059F000234B1B6898474FF05023D3F804218AB1FA
:105A00000022C3F80421D3F80421D3F81824D3F8D2
:105A1000181402F00302012A4FF0020128D1C3F842
:105A200018159A604FF05023D3F8202162B100225C
:105A3000C3F82021D3F820214FF48072C3F8082343
:105A40000F4B04201B6898474FF05023D3F82421B4
:105A5000AAB1BDE810400022C3F82421D3F82421C4
:105A60004FF40072C3F80823054B05201B68184744
:105A7000C3F80813024B01201B689847D2E710BDFA
:105A8000AC9C0020012303FA00F0C3B293B14FF0A5
:105A90002003EFF3118183F31188BFF36F8F064A60
:105AA000D36D23EA0000D06581F31188BFF36F8FB7
:105AB0000248704702487047B49C00200000AD0BBC
:105AC0000400AD0B2DE9F041FF220024012605461C
:105AD000DFF854E01548DFF85880E3B24FF02001BA
